{
  "contractName": "AbstractFundingContract",
  "abi": [
    {
      "constant": true,
      "inputs": [],
      "name": "withdrawPeriod",
      "outputs": [
        {
          "internalType": "uint256",
          "name": "",
          "type": "uint256"
        }
      ],
      "payable": false,
      "stateMutability": "view",
      "type": "function"
    },
    {
      "constant": true,
      "inputs": [],
      "name": "totalNumberOfPayoutsLeft",
      "outputs": [
        {
          "internalType": "uint256",
          "name": "",
          "type": "uint256"
        }
      ],
      "payable": false,
      "stateMutability": "view",
      "type": "function"
    },
    {
      "constant": true,
      "inputs": [],
      "name": "contractAdmin",
      "outputs": [
        {
          "internalType": "address",
          "name": "",
          "type": "address"
        }
      ],
      "payable": false,
      "stateMutability": "view",
      "type": "function"
    },
    {
      "constant": true,
      "inputs": [],
      "name": "amountPerPayment",
      "outputs": [
        {
          "internalType": "uint256",
          "name": "",
          "type": "uint256"
        }
      ],
      "payable": false,
      "stateMutability": "view",
      "type": "function"
    },
    {
      "constant": true,
      "inputs": [],
      "name": "owner",
      "outputs": [
        {
          "internalType": "address payable",
          "name": "",
          "type": "address"
        }
      ],
      "payable": false,
      "stateMutability": "view",
      "type": "function"
    },
    {
      "constant": true,
      "inputs": [],
      "name": "cancelled",
      "outputs": [
        {
          "internalType": "bool",
          "name": "",
          "type": "bool"
        }
      ],
      "payable": false,
      "stateMutability": "view",
      "type": "function"
    },
    {
      "constant": true,
      "inputs": [],
      "name": "lastWithdraw",
      "outputs": [
        {
          "internalType": "uint256",
          "name": "",
          "type": "uint256"
        }
      ],
      "payable": false,
      "stateMutability": "view",
      "type": "function"
    },
    {
      "constant": false,
      "inputs": [
        {
          "internalType": "address",
          "name": "newAdmin",
          "type": "address"
        }
      ],
      "name": "transferContractAdmin",
      "outputs": [],
      "payable": false,
      "stateMutability": "nonpayable",
      "type": "function"
    },
    {
      "constant": true,
      "inputs": [],
      "name": "numberOfPlannedPayouts",
      "outputs": [
        {
          "internalType": "uint256",
          "name": "",
          "type": "uint256"
        }
      ],
      "payable": false,
      "stateMutability": "view",
      "type": "function"
    },
    {
      "constant": false,
      "inputs": [
        {
          "internalType": "address payable",
          "name": "newOwner",
          "type": "address"
        }
      ],
      "name": "transferOwnership",
      "outputs": [],
      "payable": false,
      "stateMutability": "nonpayable",
      "type": "function"
    },
    {
      "constant": true,
      "inputs": [],
      "name": "withdrawLimit",
      "outputs": [
        {
          "internalType": "uint256",
          "name": "",
          "type": "uint256"
        }
      ],
      "payable": false,
      "stateMutability": "view",
      "type": "function"
    },
    {
      "inputs": [
        {
          "internalType": "uint256",
          "name": "_numberOfPlannedPayouts",
          "type": "uint256"
        },
        {
          "internalType": "uint256",
          "name": "_withdrawPeriod",
          "type": "uint256"
        },
        {
          "internalType": "uint256",
          "name": "_campaignEndTime",
          "type": "uint256"
        },
        {
          "internalType": "uint256",
          "name": "_amountPerPayment",
          "type": "uint256"
        },
        {
          "internalType": "address payable",
          "name": "__owner",
          "type": "address"
        },
        {
          "internalType": "address",
          "name": "_administrator",
          "type": "address"
        }
      ],
      "payable": false,
      "stateMutability": "nonpayable",
      "type": "constructor"
    },
    {
      "anonymous": false,
      "inputs": [
        {
          "indexed": true,
          "internalType": "address",
          "name": "previousAdmin",
          "type": "address"
        },
        {
          "indexed": true,
          "internalType": "address",
          "name": "newAdmin",
          "type": "address"
        }
      ],
      "name": "ContractAdminTransferred",
      "type": "event"
    },
    {
      "anonymous": false,
      "inputs": [
        {
          "indexed": true,
          "internalType": "address",
          "name": "previousOwner",
          "type": "address"
        },
        {
          "indexed": true,
          "internalType": "address",
          "name": "newOwner",
          "type": "address"
        }
      ],
      "name": "OwnershipTransferred",
      "type": "event"
    },
    {
      "anonymous": false,
      "inputs": [
        {
          "indexed": false,
          "internalType": "address",
          "name": "toAddress",
          "type": "address"
        },
        {
          "indexed": false,
          "internalType": "uint256",
          "name": "amount",
          "type": "uint256"
        },
        {
          "indexed": false,
          "internalType": "address",
          "name": "triggered",
          "type": "address"
        }
      ],
      "name": "PayoutWithdrawed",
      "type": "event"
    },
    {
      "anonymous": false,
      "inputs": [
        {
          "indexed": false,
          "internalType": "address",
          "name": "from",
          "type": "address"
        },
        {
          "indexed": false,
          "internalType": "uint256",
          "name": "amount",
          "type": "uint256"
        }
      ],
      "name": "NewDeposit",
      "type": "event"
    },
    {
      "constant": true,
      "inputs": [],
      "name": "canWithdraw",
      "outputs": [
        {
          "internalType": "bool",
          "name": "",
          "type": "bool"
        }
      ],
      "payable": false,
      "stateMutability": "view",
      "type": "function"
    },
    {
      "constant": false,
      "inputs": [],
      "name": "withdraw",
      "outputs": [],
      "payable": false,
      "stateMutability": "nonpayable",
      "type": "function"
    },
    {
      "constant": false,
      "inputs": [],
      "name": "toggleCancellation",
      "outputs": [
        {
          "internalType": "bool",
          "name": "",
          "type": "bool"
        }
      ],
      "payable": false,
      "stateMutability": "nonpayable",
      "type": "function"
    },
    {
      "constant": false,
      "inputs": [
        {
          "internalType": "address payable",
          "name": "originalPayee",
          "type": "address"
        },
        {
          "internalType": "uint256",
          "name": "amount",
          "type": "uint256"
        }
      ],
      "name": "paybackTokens",
      "outputs": [],
      "payable": false,
      "stateMutability": "nonpayable",
      "type": "function"
    },
    {
      "constant": false,
      "inputs": [
        {
          "internalType": "address",
          "name": "donator",
          "type": "address"
        },
        {
          "internalType": "uint256",
          "name": "amount",
          "type": "uint256"
        }
      ],
      "name": "deposit",
      "outputs": [],
      "payable": false,
      "stateMutability": "nonpayable",
      "type": "function"
    },
    {
      "constant": true,
      "inputs": [
        {
          "internalType": "address payable",
          "name": "",
          "type": "address"
        }
      ],
      "name": "totalBalance",
      "outputs": [
        {
          "internalType": "uint256",
          "name": "",
          "type": "uint256"
        }
      ],
      "payable": false,
      "stateMutability": "view",
      "type": "function"
    }
  ],
  "bytecode": "0x608060405234801561001057600080fd5b50604051610ace380380610ace833981810160405260c081101561003357600080fd5b508051602082015160408301516060840151608085015160a09095015160008054336001600160a01b031991821617909155600180549091166001600160a01b0383161790559394929391929091856100ed57604080517f08c379a000000000000000000000000000000000000000000000000000000000815260206004820152601960248201527f496e76616c6964206e756d626572206f66207061796f75747300000000000000604482015290519081900360640190fd5b6001600160a01b03821661016257604080517f08c379a000000000000000000000000000000000000000000000000000000000815260206004820152601860248201527f436f6e7472616374206d7573742068617665206f776e65720000000000000000604482015290519081900360640190fd5b6001600160a01b0381166101c1576040517f08c379a0000000000000000000000000000000000000000000000000000000008152600401808060200182810382526023815260200180610aab6023913960400191505060405180910390fd5b506002859055600493909355600080546001600160a01b039094166001600160a01b0319909416939093179092556007929092556003556005556108a18061020a6000396000f3fe608060405234801561001057600080fd5b506004361061010b5760003560e01c806389d1bd3e116100a2578063b52eea7411610071578063b52eea741461021a578063bb2361e014610222578063e91f109e14610248578063f2fde38b14610250578063f848d541146102765761010b565b806389d1bd3e146101fa5780638da5cb5b146102025780639a82a09a1461020a578063b51459fe146102125761010b565b806351b9853e116100de57806351b9853e1461017c5780636a83b49d146101845780636eacd398146101b057806377955245146101d65761010b565b806312eb4f9a14610110578063268894611461012a5780633ccfd60b1461014657806347e7ef2414610150575b600080fd5b61011861027e565b60408051918252519081900360200190f35b610132610284565b604080519115158252519081900360200190f35b61014e6102e9565b005b61014e6004803603604081101561016657600080fd5b506001600160a01b03813516906020013561047b565b61011861051d565b61014e6004803603604081101561019a57600080fd5b506001600160a01b038135169060200135610523565b610118600480360360208110156101c657600080fd5b50356001600160a01b03166105d1565b6101de61060a565b604080516001600160a01b039092168252519081900360200190f35b610118610619565b6101de61061f565b61013261062e565b610132610637565b610118610643565b61014e6004803603602081101561023857600080fd5b50356001600160a01b0316610649565b61011861073e565b61014e6004803603602081101561026657600080fd5b50356001600160a01b0316610744565b6101186107c9565b60045481565b6001546000906001600160a01b031633146102d05760405162461bcd60e51b81526004018080602001828103825260368152602001806108376036913960400191505060405180910390fd5b506006805460ff19811660ff9182161517918290551690565b60065460ff1615610339576040805162461bcd60e51b815260206004820152601560248201527410d85b5c185a59db881a5cc818d85b98d95b1b1959605a1b604482015290519081900360640190fd5b610341610637565b610392576040805162461bcd60e51b815260206004820152601760248201527f4e6f7420616c6c6f77656420746f207769746864726177000000000000000000604482015290519081900360640190fd5b600080546103a8906001600160a01b03166105d1565b9050600081116103f4576040805162461bcd60e51b8152602060048201526012602482015271496e73756666696369656e742066756e647360701b604482015290519081900360640190fd5b6000610405826007546003546105d1565b60005490915061041e906001600160a01b0316826107cf565b6007805460001901905542600555600054604080516001600160a01b039092168252602082018390523382820152517f7d9852b40a126afc03f00fa9020482939abdb431887f9680c1c02b3b5c8f63199181900360600190a15050565b60065460ff16156104cb576040805162461bcd60e51b815260206004820152601560248201527410d85b5c185a59db881a5cc818d85b98d95b1b1959605a1b604482015290519081900360640190fd5b6104d582826107cf565b604080516001600160a01b03841681526020810183905281517f2cb77763bc1e8490c1a904905c4d74b4269919aca114464f4bb4d911e60de364929181900390910190a15050565b60075481565b60065460ff1661057a576040805162461bcd60e51b815260206004820152601c60248201527f43616d706169676e2073686f756c642062652063616e63656c6c656400000000604482015290519081900360640190fd5b6001546001600160a01b031633146105c35760405162461bcd60e51b81526004018080602001828103825260368152602001806108376036913960400191505060405180910390fd5b6105cd82826107cf565b5050565b600060405162461bcd60e51b81526004018080602001828103825260308152602001806108076030913960400191505060405180910390fd5b6001546001600160a01b031681565b60035481565b6000546001600160a01b031681565b60065460ff1681565b60045460055401421190565b60055481565b6001546001600160a01b031633146106925760405162461bcd60e51b81526004018080602001828103825260368152602001806108376036913960400191505060405180910390fd5b6001600160a01b0381166106e2576040805162461bcd60e51b81526020600482015260126024820152712732b2b21030903b30b634b21030b236b4b760711b604482015290519081900360640190fd5b6001546040516001600160a01b038084169216907f2f4e7de2a1dbac81744f8c97250194a39d96545eb864d155412811ff2f9c9ff890600090a3600180546001600160a01b0319166001600160a01b0392909216919091179055565b60025481565b6000546001600160a01b0316331461075b57600080fd5b6001600160a01b03811661076e57600080fd5b600080546040516001600160a01b03808516939216917f8be0079c531659141344cd1fd0a4f28419497f9722a3daafe3b4186f6b6457e091a3600080546001600160a01b0319166001600160a01b0392909216919091179055565b60085481565b60405162461bcd60e51b81526004018080602001828103825260308152602001806108076030913960400191505060405180910390fdfe54686973206d75737420626520696d706c656d656e74656420696e2074686520696e6865726974696e6720636c6173734f6e6c7920636f6e74726163742061646d696e6973747261746f722063616e20706572666f726d2074686973206f7065726174696f6ea265627a7a72315820e1daafbcad93077e3f69d27f02326e25d856a7dcb4bcff52af86e65a94ee6c2064736f6c634300050b0032436f6e7472616374206d757374206861766520616e20696e697469616c2061646d696e",
  "source": "pragma solidity ^0.5.11;\n\nimport \"./FundingContract.sol\";\nimport \"./zeppelin/ownership/Ownable.sol\";\nimport \"./zeppelin/ownership/AdminControlled.sol\";\n\ncontract AbstractFundingContract is FundingContract, Ownable, AdminControlled {\n    uint256 public numberOfPlannedPayouts;\n    uint256 public amountPerPayment;\n    uint256 public withdrawPeriod;\n    uint256 public lastWithdraw;\n    bool public cancelled;\n    uint256 public totalNumberOfPayoutsLeft;\n    uint256 public withdrawLimit;\n\n    modifier notCancelled {\n        require(!cancelled, \"Campaign is cancelled\");\n        _;\n    }\n\n    modifier isCancelled {\n        require(cancelled, \"Campaign should be cancelled\");\n        _;\n    }\n\n    constructor(\n        uint256 _numberOfPlannedPayouts,\n        uint256 _withdrawPeriod,\n        uint256 _campaignEndTime,\n        uint256 _amountPerPayment,\n        address payable __owner,\n        address _administrator\n    ) public AdminControlled(_administrator) {\n        require(_numberOfPlannedPayouts > 0, \"Invalid number of payouts\");\n        require(__owner != address(0), \"Contract must have owner\");\n        require(\n            _administrator != address(0),\n            \"Contract must have an initial admin\"\n        );\n\n        numberOfPlannedPayouts = _numberOfPlannedPayouts;\n        withdrawPeriod = _withdrawPeriod;\n        owner = __owner;\n        totalNumberOfPayoutsLeft = numberOfPlannedPayouts;\n        amountPerPayment = _amountPerPayment;\n\n        // consider the last withdraw date is the last day of campaign\n        lastWithdraw = _campaignEndTime;\n    }\n\n    function canWithdraw() public view returns (bool) {\n        // Check when was the last time the withdraw happened, and add withdraw period.\n        return now > lastWithdraw + withdrawPeriod;\n    }\n\n    // Functions\n    // AbstractFundingContract\n    function withdraw() external notCancelled {\n        require(canWithdraw(), \"Not allowed to withdraw\");\n        uint256 leftBalance = totalBalance(owner);\n\n        require(leftBalance > 0, \"Insufficient funds\");\n        uint256 payoutAmount = getPayoutAmount(\n            uint256(leftBalance),\n            totalNumberOfPayoutsLeft,\n            amountPerPayment\n        );\n\n        // withdraw money and make the transfer to the owner.\n        doWithdraw(owner, payoutAmount);\n        totalNumberOfPayoutsLeft--;\n        lastWithdraw = now;\n\n        emit PayoutWithdrawed(owner, payoutAmount, msg.sender);\n    }\n\n    function toggleCancellation() external onlyAdmin returns (bool) {\n        cancelled = !cancelled;\n        return cancelled;\n    }\n\n    function paybackTokens(address payable originalPayee, uint256 amount)\n        external\n        isCancelled\n        onlyAdmin\n    {\n        doWithdraw(originalPayee, amount);\n    }\n\n    function deposit(address donator, uint256 amount) external notCancelled {\n        doDeposit(donator, amount);\n        emit NewDeposit(donator, amount);\n    }\n\n    function totalBalance(\n        address payable /* owner */\n    ) public view returns (uint256) {\n        revert(\"This must be implemented in the inheriting class\");\n    }\n\n    function doWithdraw(\n        address payable, /* owner */\n        uint256 /* amount */\n    ) internal {\n        revert(\"This must be implemented in the inheriting class\");\n    }\n\n    function doDeposit(\n        address, /* donator */\n        uint256 /* amount */\n    ) internal {\n        revert(\"This must be implemented in the inheriting class\");\n    }\n\n    function getPayoutAmount(\n        uint256 /* leftBalance */,\n        uint256 /* totalNumberOfPayoutsLeft */,\n        uint256 /* amountPerPayment */\n    ) internal view returns (uint256) {\n        revert(\"This must be implemented in the inheriting class\");\n    }\n}\n",
  "sourcePath": "/Users/msusur/dev/msusur/ucurtma-contracts/contracts/AbstractFundingContract.sol",
  "compiler": {
    "name": "solc",
    "version": "0.5.11+commit.c082d0b4.Emscripten.clang"
  },
  "schemaVersion": "3.0.20",
  "updatedAt": "2020-06-16T21:05:13.426Z",
  "devdoc": {
    "methods": {
      "transferOwnership(address)": {
        "details": "Allows the current owner to transfer control of the contract to a newOwner.",
        "params": {
          "newOwner": "The address to transfer ownership to."
        }
      }
    }
  },
  "userdoc": {
    "methods": {}
  }
}