{
  "contractName": "AbstractFundingContract",
  "abi": [
    {
      "constant": true,
      "inputs": [],
      "name": "withdrawPeriod",
      "outputs": [
        {
          "internalType": "uint256",
          "name": "",
          "type": "uint256"
        }
      ],
      "payable": false,
      "stateMutability": "view",
      "type": "function"
    },
    {
      "constant": true,
      "inputs": [],
      "name": "totalNumberOfPayoutsLeft",
      "outputs": [
        {
          "internalType": "uint256",
          "name": "",
          "type": "uint256"
        }
      ],
      "payable": false,
      "stateMutability": "view",
      "type": "function"
    },
    {
      "constant": true,
      "inputs": [],
      "name": "contractAdmin",
      "outputs": [
        {
          "internalType": "address",
          "name": "",
          "type": "address"
        }
      ],
      "payable": false,
      "stateMutability": "view",
      "type": "function"
    },
    {
      "constant": true,
      "inputs": [],
      "name": "owner",
      "outputs": [
        {
          "internalType": "address payable",
          "name": "",
          "type": "address"
        }
      ],
      "payable": false,
      "stateMutability": "view",
      "type": "function"
    },
    {
      "constant": true,
      "inputs": [],
      "name": "cancelled",
      "outputs": [
        {
          "internalType": "bool",
          "name": "",
          "type": "bool"
        }
      ],
      "payable": false,
      "stateMutability": "view",
      "type": "function"
    },
    {
      "constant": true,
      "inputs": [],
      "name": "lastWithdraw",
      "outputs": [
        {
          "internalType": "uint256",
          "name": "",
          "type": "uint256"
        }
      ],
      "payable": false,
      "stateMutability": "view",
      "type": "function"
    },
    {
      "constant": false,
      "inputs": [
        {
          "internalType": "address",
          "name": "newAdmin",
          "type": "address"
        }
      ],
      "name": "transferContractAdmin",
      "outputs": [],
      "payable": false,
      "stateMutability": "nonpayable",
      "type": "function"
    },
    {
      "constant": true,
      "inputs": [],
      "name": "numberOfPlannedPayouts",
      "outputs": [
        {
          "internalType": "uint256",
          "name": "",
          "type": "uint256"
        }
      ],
      "payable": false,
      "stateMutability": "view",
      "type": "function"
    },
    {
      "constant": false,
      "inputs": [
        {
          "internalType": "address payable",
          "name": "newOwner",
          "type": "address"
        }
      ],
      "name": "transferOwnership",
      "outputs": [],
      "payable": false,
      "stateMutability": "nonpayable",
      "type": "function"
    },
    {
      "constant": true,
      "inputs": [],
      "name": "withdrawLimit",
      "outputs": [
        {
          "internalType": "uint256",
          "name": "",
          "type": "uint256"
        }
      ],
      "payable": false,
      "stateMutability": "view",
      "type": "function"
    },
    {
      "inputs": [
        {
          "internalType": "uint256",
          "name": "_numberOfPlannedPayouts",
          "type": "uint256"
        },
        {
          "internalType": "uint256",
          "name": "_withdrawPeriod",
          "type": "uint256"
        },
        {
          "internalType": "uint256",
          "name": "_campaignEndTime",
          "type": "uint256"
        },
        {
          "internalType": "address payable",
          "name": "__owner",
          "type": "address"
        },
        {
          "internalType": "address",
          "name": "_administrator",
          "type": "address"
        }
      ],
      "payable": false,
      "stateMutability": "nonpayable",
      "type": "constructor"
    },
    {
      "anonymous": false,
      "inputs": [
        {
          "indexed": true,
          "internalType": "address",
          "name": "previousAdmin",
          "type": "address"
        },
        {
          "indexed": true,
          "internalType": "address",
          "name": "newAdmin",
          "type": "address"
        }
      ],
      "name": "ContractAdminTransferred",
      "type": "event"
    },
    {
      "anonymous": false,
      "inputs": [
        {
          "indexed": true,
          "internalType": "address",
          "name": "previousOwner",
          "type": "address"
        },
        {
          "indexed": true,
          "internalType": "address",
          "name": "newOwner",
          "type": "address"
        }
      ],
      "name": "OwnershipTransferred",
      "type": "event"
    },
    {
      "anonymous": false,
      "inputs": [
        {
          "indexed": false,
          "internalType": "address",
          "name": "toAddress",
          "type": "address"
        },
        {
          "indexed": false,
          "internalType": "uint256",
          "name": "amount",
          "type": "uint256"
        }
      ],
      "name": "PayoutWithdrawed",
      "type": "event"
    },
    {
      "anonymous": false,
      "inputs": [
        {
          "indexed": false,
          "internalType": "address",
          "name": "from",
          "type": "address"
        },
        {
          "indexed": false,
          "internalType": "uint256",
          "name": "amount",
          "type": "uint256"
        }
      ],
      "name": "NewDeposit",
      "type": "event"
    },
    {
      "constant": true,
      "inputs": [],
      "name": "canWithdraw",
      "outputs": [
        {
          "internalType": "bool",
          "name": "",
          "type": "bool"
        }
      ],
      "payable": false,
      "stateMutability": "view",
      "type": "function"
    },
    {
      "constant": false,
      "inputs": [],
      "name": "withdraw",
      "outputs": [],
      "payable": false,
      "stateMutability": "nonpayable",
      "type": "function"
    },
    {
      "constant": false,
      "inputs": [],
      "name": "toggleCancellation",
      "outputs": [
        {
          "internalType": "bool",
          "name": "",
          "type": "bool"
        }
      ],
      "payable": false,
      "stateMutability": "nonpayable",
      "type": "function"
    },
    {
      "constant": false,
      "inputs": [
        {
          "internalType": "address payable",
          "name": "originalPayee",
          "type": "address"
        },
        {
          "internalType": "uint256",
          "name": "amount",
          "type": "uint256"
        }
      ],
      "name": "paybackTokens",
      "outputs": [],
      "payable": false,
      "stateMutability": "nonpayable",
      "type": "function"
    },
    {
      "constant": false,
      "inputs": [
        {
          "internalType": "address",
          "name": "donator",
          "type": "address"
        },
        {
          "internalType": "uint256",
          "name": "amount",
          "type": "uint256"
        }
      ],
      "name": "deposit",
      "outputs": [],
      "payable": false,
      "stateMutability": "nonpayable",
      "type": "function"
    },
    {
      "constant": true,
      "inputs": [
        {
          "internalType": "address payable",
          "name": "",
          "type": "address"
        }
      ],
      "name": "totalBalance",
      "outputs": [
        {
          "internalType": "uint256",
          "name": "",
          "type": "uint256"
        }
      ],
      "payable": false,
      "stateMutability": "view",
      "type": "function"
    }
  ],
  "bytecode": "0x608060405234801561001057600080fd5b50604051610915380380610915833981810160405260a081101561003357600080fd5b50805160208201516040830151606084015160809094015160008054600180546001600160a01b039485166001600160a01b031991821617909155600287905560039590955591909516908316331790921691909117909255600655600455610874806100a16000396000f3fe608060405234801561001057600080fd5b50600436106101005760003560e01c80638da5cb5b11610097578063bb2361e011610066578063bb2361e01461020f578063e91f109e14610235578063f2fde38b1461023d578063f848d5411461026357610100565b80638da5cb5b146101ef5780639a82a09a146101f7578063b51459fe146101ff578063b52eea741461020757610100565b806351b9853e116100d357806351b9853e146101715780636a83b49d146101795780636eacd398146101a557806377955245146101cb57610100565b806312eb4f9a14610105578063268894611461011f5780633ccfd60b1461013b57806347e7ef2414610145575b600080fd5b61010d61026b565b60408051918252519081900360200190f35b610127610271565b604080519115158252519081900360200190f35b6101436102d6565b005b6101436004803603604081101561015b57600080fd5b506001600160a01b038135169060200135610454565b61010d6104f6565b6101436004803603604081101561018f57600080fd5b506001600160a01b0381351690602001356104fc565b61010d600480360360208110156101bb57600080fd5b50356001600160a01b03166105aa565b6101d36105e3565b604080516001600160a01b039092168252519081900360200190f35b6101d36105f2565b610127610601565b61012761060a565b61010d610616565b6101436004803603602081101561022557600080fd5b50356001600160a01b031661061c565b61010d610711565b6101436004803603602081101561025357600080fd5b50356001600160a01b0316610717565b61010d61079c565b60035481565b6001546000906001600160a01b031633146102bd5760405162461bcd60e51b815260040180806020018281038252603681526020018061080a6036913960400191505060405180910390fd5b506005805460ff19811660ff9182161517918290551690565b60055460ff1615610326576040805162461bcd60e51b815260206004820152601560248201527410d85b5c185a59db881a5cc818d85b98d95b1b1959605a1b604482015290519081900360640190fd5b6000546001600160a01b0316331461033d57600080fd5b61034561060a565b610396576040805162461bcd60e51b815260206004820152601760248201527f4e6f7420616c6c6f77656420746f207769746864726177000000000000000000604482015290519081900360640190fd5b60006103a1336105aa565b9050600081116103ed576040805162461bcd60e51b8152602060048201526012602482015271496e73756666696369656e742066756e647360701b604482015290519081900360640190fd5b600060065482816103fa57fe5b04905061040733826107a2565b6006805460001901905542600455604080513381526020810183905281517ff007d0b6dd0d09fe0f99bb9f92c996cf7954d82ddb96f70b5f5a3cefe52d959f929181900390910190a15050565b60055460ff16156104a4576040805162461bcd60e51b815260206004820152601560248201527410d85b5c185a59db881a5cc818d85b98d95b1b1959605a1b604482015290519081900360640190fd5b6104ae82826107a2565b604080516001600160a01b03841681526020810183905281517f2cb77763bc1e8490c1a904905c4d74b4269919aca114464f4bb4d911e60de364929181900390910190a15050565b60065481565b60055460ff16610553576040805162461bcd60e51b815260206004820152601c60248201527f43616d706169676e2073686f756c642062652063616e63656c6c656400000000604482015290519081900360640190fd5b6001546001600160a01b0316331461059c5760405162461bcd60e51b815260040180806020018281038252603681526020018061080a6036913960400191505060405180910390fd5b6105a682826107a2565b5050565b600060405162461bcd60e51b81526004018080602001828103825260308152602001806107da6030913960400191505060405180910390fd5b6001546001600160a01b031681565b6000546001600160a01b031681565b60055460ff1681565b60035460045401421190565b60045481565b6001546001600160a01b031633146106655760405162461bcd60e51b815260040180806020018281038252603681526020018061080a6036913960400191505060405180910390fd5b6001600160a01b0381166106b5576040805162461bcd60e51b81526020600482015260126024820152712732b2b21030903b30b634b21030b236b4b760711b604482015290519081900360640190fd5b6001546040516001600160a01b038084169216907f2f4e7de2a1dbac81744f8c97250194a39d96545eb864d155412811ff2f9c9ff890600090a3600180546001600160a01b0319166001600160a01b0392909216919091179055565b60025481565b6000546001600160a01b0316331461072e57600080fd5b6001600160a01b03811661074157600080fd5b600080546040516001600160a01b03808516939216917f8be0079c531659141344cd1fd0a4f28419497f9722a3daafe3b4186f6b6457e091a3600080546001600160a01b0319166001600160a01b0392909216919091179055565b60075481565b60405162461bcd60e51b81526004018080602001828103825260308152602001806107da6030913960400191505060405180910390fdfe54686973206d75737420626520696d706c656d656e74656420696e2074686520696e6865726974696e6720636c6173734f6e6c7920636f6e74726163742061646d696e6973747261746f722063616e20706572666f726d2074686973206f7065726174696f6ea265627a7a7231582012cc8215d5f80a28871cda569a93719282a48ed191125193c8dc17de705b1e5b64736f6c634300050b0032",
  "source": "pragma solidity ^0.5.11;\n\nimport './FundingContract.sol';\nimport './zeppelin/ownership/Ownable.sol';\nimport './zeppelin/ownership/AdminControlled.sol';\n\ncontract AbstractFundingContract is FundingContract, Ownable, AdminControlled {\n\n  uint256 public numberOfPlannedPayouts;\n  uint256 public withdrawPeriod;\n  uint256 public lastWithdraw;\n  bool public cancelled;\n  uint256 public totalNumberOfPayoutsLeft;\n  uint256 public withdrawLimit;\n\n  modifier notCancelled {\n    require(!cancelled, 'Campaign is cancelled');\n    _;\n  }\n\n  modifier isCancelled {\n    require(cancelled, 'Campaign should be cancelled');\n    _;\n  }\n\n  constructor(uint256 _numberOfPlannedPayouts,\n    uint256 _withdrawPeriod,\n    uint256 _campaignEndTime,\n    address payable __owner,\n    address _administrator\n  )\n    AdminControlled(_administrator)\n    public {\n\n    numberOfPlannedPayouts = _numberOfPlannedPayouts;\n    withdrawPeriod = _withdrawPeriod;\n    owner = __owner;\n    totalNumberOfPayoutsLeft = numberOfPlannedPayouts;\n\n    // consider the last withdraw date is the last day of campaign\n    lastWithdraw = _campaignEndTime;\n  }\n\n  function canWithdraw() public view returns(bool) {\n    // Check when was the last time the withdraw happened, and add withdraw period.\n    return now > lastWithdraw + withdrawPeriod;\n  }\n\n  // Functions\n  // AbstractFundingContract\n  function withdraw() external notCancelled onlyOwner {\n    require(canWithdraw(), 'Not allowed to withdraw');\n    uint256 leftBalance = totalBalance(msg.sender);\n    require(leftBalance > 0, 'Insufficient funds');\n    uint256 payoutAmount = uint256(leftBalance) / totalNumberOfPayoutsLeft;\n    // withdraw money and make the transfer to the owner.\n    doWithdraw(msg.sender, payoutAmount);\n    totalNumberOfPayoutsLeft--;\n    lastWithdraw = now;\n    emit PayoutWithdrawed(msg.sender, payoutAmount);\n  }\n\n  function toggleCancellation() external onlyAdmin returns(bool) {\n    cancelled = !cancelled;\n    return cancelled;\n  }\n\n  function paybackTokens(address payable originalPayee, uint256 amount) external isCancelled onlyAdmin {\n\n    doWithdraw(originalPayee, amount);\n  }\n\n  function deposit(address donator, uint256 amount) external notCancelled {\n    doDeposit(donator, amount);\n    emit NewDeposit(donator, amount);\n  }\n\n  function totalBalance(address payable /* owner */) public view returns (uint256) {\n    revert('This must be implemented in the inheriting class');\n  }\n\n  function doWithdraw(address payable /* owner */, uint256 /* amount */) internal {\n    revert('This must be implemented in the inheriting class');\n  }\n\n  function doDeposit(address /* donator */, uint256 /* amount */) internal {\n    revert('This must be implemented in the inheriting class');\n  }\n}",
  "sourcePath": "/Users/mert/dev/msusur/ucurtma-contracts/contracts/AbstractFundingContract.sol",
  "compiler": {
    "name": "solc",
    "version": "0.5.11+commit.c082d0b4.Emscripten.clang"
  },
  "schemaVersion": "3.0.20",
  "updatedAt": "2020-01-20T21:08:20.274Z",
  "devdoc": {
    "methods": {
      "transferOwnership(address)": {
        "details": "Allows the current owner to transfer control of the contract to a newOwner.",
        "params": {
          "newOwner": "The address to transfer ownership to."
        }
      }
    }
  },
  "userdoc": {
    "methods": {}
  }
}