{
  "contractName": "AdminControlled",
  "abi": [
    {
      "constant": true,
      "inputs": [],
      "name": "contractAdmin",
      "outputs": [
        {
          "internalType": "address",
          "name": "",
          "type": "address"
        }
      ],
      "payable": false,
      "stateMutability": "view",
      "type": "function"
    },
    {
      "inputs": [
        {
          "internalType": "address",
          "name": "administrator",
          "type": "address"
        }
      ],
      "payable": false,
      "stateMutability": "nonpayable",
      "type": "constructor"
    },
    {
      "anonymous": false,
      "inputs": [
        {
          "indexed": true,
          "internalType": "address",
          "name": "previousAdmin",
          "type": "address"
        },
        {
          "indexed": true,
          "internalType": "address",
          "name": "newAdmin",
          "type": "address"
        }
      ],
      "name": "ContractAdminTransferred",
      "type": "event"
    },
    {
      "constant": false,
      "inputs": [
        {
          "internalType": "address",
          "name": "newAdmin",
          "type": "address"
        }
      ],
      "name": "transferContractAdmin",
      "outputs": [],
      "payable": false,
      "stateMutability": "nonpayable",
      "type": "function"
    }
  ],
  "bytecode": "0x608060405234801561001057600080fd5b5060405161025a38038061025a8339818101604052602081101561003357600080fd5b5051600080546001600160a01b039092166001600160a01b03199092169190911790556101f5806100656000396000f3fe608060405234801561001057600080fd5b50600436106100365760003560e01c8063779552451461003b578063bb2361e01461005f575b600080fd5b610043610087565b604080516001600160a01b039092168252519081900360200190f35b6100856004803603602081101561007557600080fd5b50356001600160a01b0316610096565b005b6000546001600160a01b031681565b6000546001600160a01b031633146100df5760405162461bcd60e51b815260040180806020018281038252603681526020018061018b6036913960400191505060405180910390fd5b6001600160a01b03811661012f576040805162461bcd60e51b81526020600482015260126024820152712732b2b21030903b30b634b21030b236b4b760711b604482015290519081900360640190fd5b600080546040516001600160a01b03808516939216917f2f4e7de2a1dbac81744f8c97250194a39d96545eb864d155412811ff2f9c9ff891a3600080546001600160a01b0319166001600160a01b039290921691909117905556fe4f6e6c7920636f6e74726163742061646d696e6973747261746f722063616e20706572666f726d2074686973206f7065726174696f6ea265627a7a723158203edb2093fdd62a998b5bca77aa9a478132f6e99d0b1ba83996755a7d278521a564736f6c634300050b0032",
  "source": "pragma solidity ^0.5.11;\n\ncontract AdminControlled {\n  address public contractAdmin;\n\n  event ContractAdminTransferred(address indexed previousAdmin, address indexed newAdmin);\n\n  constructor(address administrator) public {\n    contractAdmin = administrator;\n  }\n\n  modifier onlyAdmin() {\n    require(msg.sender == contractAdmin, 'Only contract administrator can perform this operation');\n    _;\n  }\n\n  function transferContractAdmin(address newAdmin) public onlyAdmin {\n    require(newAdmin != address(0), 'Need a valid admin');\n    emit ContractAdminTransferred(contractAdmin, newAdmin);\n    contractAdmin = newAdmin;\n  }\n}",
  "sourcePath": "/Users/mert/dev/msusur/ucurtma-contracts/contracts/zeppelin/ownership/AdminControlled.sol",
  "compiler": {
    "name": "solc",
    "version": "0.5.11+commit.c082d0b4.Emscripten.clang"
  },
  "schemaVersion": "3.0.20",
  "updatedAt": "2020-01-20T21:08:20.329Z",
  "devdoc": {
    "methods": {}
  },
  "userdoc": {
    "methods": {}
  }
}