{
  "contractName": "BiliraFundingContractDeployer",
  "abi": [
    {
      "constant": false,
      "inputs": [
        {
          "internalType": "uint256",
          "name": "_numberOfPlannedPayouts",
          "type": "uint256"
        },
        {
          "internalType": "uint256",
          "name": "_withdrawPeriod",
          "type": "uint256"
        },
        {
          "internalType": "uint256",
          "name": "_campaignEndTime",
          "type": "uint256"
        },
        {
          "internalType": "address payable",
          "name": "__owner",
          "type": "address"
        },
        {
          "internalType": "address",
          "name": "_tokenAddress",
          "type": "address"
        },
        {
          "internalType": "address",
          "name": "_adminAddress",
          "type": "address"
        }
      ],
      "name": "deploy",
      "outputs": [
        {
          "internalType": "contract FundingContract",
          "name": "c",
          "type": "address"
        }
      ],
      "payable": false,
      "stateMutability": "nonpayable",
      "type": "function"
    }
  ],
  "bytecode": "0x608060405234801561001057600080fd5b50610c3f806100206000396000f3fe608060405234801561001057600080fd5b506004361061002b5760003560e01c8063b082fac014610030575b600080fd5b61007a600480360360c081101561004657600080fd5b508035906020810135906040810135906001600160a01b036060820135811691608081013582169160a09091013516610096565b604080516001600160a01b039092168252519081900360200190f35b60008686868686866040516100aa90610108565b95865260208601949094526040808601939093526001600160a01b039182166060860152811660808501529190911660a0830152519081900360c001906000f0801580156100fc573d6000803e3d6000fd5b50979650505050505050565b610af5806101168339019056fe608060405234801561001057600080fd5b50604051610af5380380610af5833981810160405260c081101561003357600080fd5b508051602082015160408301516060840151608085015160a09095015160008054600180546001600160a01b038086166001600160a01b0319928316179092556002899055600388905581861692811633171691909117909155600686905560048490559495939492939192821661010c57604080517f08c379a000000000000000000000000000000000000000000000000000000000815260206004820152601a60248201527f6e65656420612076616c696420746f6b656e2061646472657373000000000000604482015290519081900360640190fd5b50600880546001600160a01b039092166001600160a01b0319909216919091179055505050506109b4806101416000396000f3fe608060405234801561001057600080fd5b506004361061010b5760003560e01c80638da5cb5b116100a2578063bb2361e011610071578063bb2361e01461021a578063e91f109e14610240578063f2fde38b14610248578063f848d5411461026e578063fc0c546a146102765761010b565b80638da5cb5b146101fa5780639a82a09a14610202578063b51459fe1461020a578063b52eea74146102125761010b565b806351b9853e116100de57806351b9853e1461017c5780636a83b49d146101845780636eacd398146101b057806377955245146101d65761010b565b806312eb4f9a14610110578063268894611461012a5780633ccfd60b1461014657806347e7ef2414610150575b600080fd5b61011861027e565b60408051918252519081900360200190f35b610132610284565b604080519115158252519081900360200190f35b61014e6102e9565b005b61014e6004803603604081101561016657600080fd5b506001600160a01b038135169060200135610467565b610118610509565b61014e6004803603604081101561019a57600080fd5b506001600160a01b03813516906020013561050f565b610118600480360360208110156101c657600080fd5b50356001600160a01b03166105bd565b6101de61063a565b604080516001600160a01b039092168252519081900360200190f35b6101de610649565b610132610658565b610132610661565b61011861066d565b61014e6004803603602081101561023057600080fd5b50356001600160a01b0316610673565b610118610768565b61014e6004803603602081101561025e57600080fd5b50356001600160a01b031661076e565b6101186107f3565b6101de6107f9565b60035481565b6001546000906001600160a01b031633146102d05760405162461bcd60e51b81526004018080602001828103825260368152602001806109286036913960400191505060405180910390fd5b506005805460ff19811660ff9182161517918290551690565b60055460ff1615610339576040805162461bcd60e51b815260206004820152601560248201527410d85b5c185a59db881a5cc818d85b98d95b1b1959605a1b604482015290519081900360640190fd5b6000546001600160a01b0316331461035057600080fd5b610358610661565b6103a9576040805162461bcd60e51b815260206004820152601760248201527f4e6f7420616c6c6f77656420746f207769746864726177000000000000000000604482015290519081900360640190fd5b60006103b4336105bd565b905060008111610400576040805162461bcd60e51b8152602060048201526012602482015271496e73756666696369656e742066756e647360701b604482015290519081900360640190fd5b6000600654828161040d57fe5b04905061041a3382610808565b6006805460001901905542600455604080513381526020810183905281517ff007d0b6dd0d09fe0f99bb9f92c996cf7954d82ddb96f70b5f5a3cefe52d959f929181900390910190a15050565b60055460ff16156104b7576040805162461bcd60e51b815260206004820152601560248201527410d85b5c185a59db881a5cc818d85b98d95b1b1959605a1b604482015290519081900360640190fd5b6104c1828261088e565b604080516001600160a01b03841681526020810183905281517f2cb77763bc1e8490c1a904905c4d74b4269919aca114464f4bb4d911e60de364929181900390910190a15050565b60065481565b60055460ff16610566576040805162461bcd60e51b815260206004820152601c60248201527f43616d706169676e2073686f756c642062652063616e63656c6c656400000000604482015290519081900360640190fd5b6001546001600160a01b031633146105af5760405162461bcd60e51b81526004018080602001828103825260368152602001806109286036913960400191505060405180910390fd5b6105b98282610808565b5050565b600854604080516370a0823160e01b815230600482015290516000926001600160a01b0316916370a08231916024808301926020929190829003018186803b15801561060857600080fd5b505afa15801561061c573d6000803e3d6000fd5b505050506040513d602081101561063257600080fd5b505192915050565b6001546001600160a01b031681565b6000546001600160a01b031681565b60055460ff1681565b60035460045401421190565b60045481565b6001546001600160a01b031633146106bc5760405162461bcd60e51b81526004018080602001828103825260368152602001806109286036913960400191505060405180910390fd5b6001600160a01b03811661070c576040805162461bcd60e51b81526020600482015260126024820152712732b2b21030903b30b634b21030b236b4b760711b604482015290519081900360640190fd5b6001546040516001600160a01b038084169216907f2f4e7de2a1dbac81744f8c97250194a39d96545eb864d155412811ff2f9c9ff890600090a3600180546001600160a01b0319166001600160a01b0392909216919091179055565b60025481565b6000546001600160a01b0316331461078557600080fd5b6001600160a01b03811661079857600080fd5b600080546040516001600160a01b03808516939216917f8be0079c531659141344cd1fd0a4f28419497f9722a3daafe3b4186f6b6457e091a3600080546001600160a01b0319166001600160a01b0392909216919091179055565b60075481565b6008546001600160a01b031681565b6008546040805163a9059cbb60e01b81526001600160a01b038581166004830152602482018590529151919092169163a9059cbb9160448083019260209291908290030181600087803b15801561085e57600080fd5b505af1158015610872573d6000803e3d6000fd5b505050506040513d602081101561088857600080fd5b50505050565b34156108cb5760405162461bcd60e51b815260040180806020018281038252602281526020018061095e6022913960400191505060405180910390fd5b600854604080516323b872dd60e01b81526001600160a01b03858116600483015230602483015260448201859052915191909216916323b872dd9160648083019260209291908290030181600087803b15801561085e57600080fdfe4f6e6c7920636f6e74726163742061646d696e6973747261746f722063616e20706572666f726d2074686973206f7065726174696f6e4e6f2045544820616c6c6f77656420666f7220455243323020636f6e74726163742ea265627a7a723158202433c2f4751677ca71b2747fbb59d4c4472bbd7330c1cfe2f8972016818822b764736f6c634300050b0032a265627a7a723158201950cce6200841a3bf8b9a115f8f04fa62f75634298e3f0f35a88411ed2dd63d64736f6c634300050b0032",
  "source": "pragma solidity ^0.5.11;\n\nimport \"./ERC20FundingContract.sol\";\nimport \"./FundingContract.sol\";\nimport \"./Deployer.sol\";\n\n\ncontract BiliraFundingContractDeployer is Deployer {\n    function deploy(\n        uint256 _numberOfPlannedPayouts,\n        uint256 _withdrawPeriod,\n        uint256 _campaignEndTime,\n        address payable __owner,\n        address _tokenAddress,\n        address _adminAddress\n    ) external returns (FundingContract c) {\n        c = new ERC20FundingContract(\n            _numberOfPlannedPayouts,\n            _withdrawPeriod,\n            _campaignEndTime,\n            __owner,\n            _tokenAddress,\n            _adminAddress\n        );\n    }\n}\n",
  "sourcePath": "/Users/msusur/dev/msusur/ucurtma-contracts/contracts/BiliraFundingContractDeployer.sol",
  "compiler": {
    "name": "solc",
    "version": "0.5.11+commit.c082d0b4.Emscripten.clang"
  },
  "schemaVersion": "3.0.20",
  "updatedAt": "2020-05-06T20:42:05.763Z",
  "networkType": "ethereum",
  "devdoc": {
    "methods": {}
  },
  "userdoc": {
    "methods": {}
  }
}