{
  "contractName": "BiliraFundingContractDeployer",
  "abi": [
    {
      "constant": false,
      "inputs": [
        {
          "internalType": "uint256",
          "name": "_numberOfPlannedPayouts",
          "type": "uint256"
        },
        {
          "internalType": "uint256",
          "name": "_withdrawPeriod",
          "type": "uint256"
        },
        {
          "internalType": "uint256",
          "name": "_campaignEndTime",
          "type": "uint256"
        },
        {
          "internalType": "uint256",
          "name": "_amountPerPayment",
          "type": "uint256"
        },
        {
          "internalType": "address payable",
          "name": "__owner",
          "type": "address"
        },
        {
          "internalType": "address",
          "name": "_tokenAddress",
          "type": "address"
        },
        {
          "internalType": "address",
          "name": "_adminAddress",
          "type": "address"
        }
      ],
      "name": "deploy",
      "outputs": [
        {
          "internalType": "contract FundingContract",
          "name": "c",
          "type": "address"
        }
      ],
      "payable": false,
      "stateMutability": "nonpayable",
      "type": "function"
    }
  ],
  "bytecode": "0x608060405234801561001057600080fd5b50611114806100206000396000f3fe608060405234801561001057600080fd5b506004361061002b5760003560e01c8063cec3ae9c14610030575b600080fd5b610080600480360360e081101561004657600080fd5b508035906020810135906040810135906060810135906001600160a01b03608082013581169160a081013582169160c0909101351661009c565b604080516001600160a01b039092168252519081900360200190f35b6000878787878787876040516100b190610119565b968752602087019590955260408087019490945260608601929092526001600160a01b03908116608086015290811660a08501529190911660c0830152519081900360e001906000f08015801561010c573d6000803e3d6000fd5b5098975050505050505050565b610fb9806101278339019056fe608060405234801561001057600080fd5b50604051610fb9380380610fb9833981810160405260e081101561003357600080fd5b508051602082015160408301516060840151608085015160a086015160c090960151600080546001600160a01b0319166001600160a01b0383161790559495939492939192909190868686868685856100ed57604080517f08c379a000000000000000000000000000000000000000000000000000000000815260206004820152601960248201527f496e76616c6964206e756d626572206f66207061796f75747300000000000000604482015290519081900360640190fd5b6001600160a01b03821661016257604080517f08c379a000000000000000000000000000000000000000000000000000000000815260206004820152601860248201527f436f6e7472616374206d7573742068617665206f776e65720000000000000000604482015290519081900360640190fd5b6001600160a01b0381166101c1576040517f08c379a0000000000000000000000000000000000000000000000000000000008152600401808060200182810382526023815260200180610f966023913960400191505060405180910390fd5b506002859055600493909355600180546001600160a01b0319166001600160a01b03948516179055600793909355600392909255600591909155821661026857604080517f08c379a000000000000000000000000000000000000000000000000000000000815260206004820152601a60248201527f6e65656420612076616c696420746f6b656e2061646472657373000000000000604482015290519081900360640190fd5b50600980546001600160a01b039092166001600160a01b03199092169190911790555050505050610cf88061029e6000396000f3fe608060405234801561001057600080fd5b50600436106101165760003560e01c80638da5cb5b116100a2578063bb2361e011610071578063bb2361e01461022d578063e91f109e14610253578063f2fde38b1461025b578063f848d54114610281578063fc0c546a1461028957610116565b80638da5cb5b1461020d5780639a82a09a14610215578063b51459fe1461021d578063b52eea741461022557610116565b806351b9853e116100e957806351b9853e146101875780636a83b49d1461018f5780636eacd398146101bb57806377955245146101e157806389d1bd3e1461020557610116565b806312eb4f9a1461011b57806326889461146101355780633ccfd60b1461015157806347e7ef241461015b575b600080fd5b610123610291565b60408051918252519081900360200190f35b61013d610297565b604080519115158252519081900360200190f35b6101596102fa565b005b6101596004803603604081101561017157600080fd5b506001600160a01b0381351690602001356104d8565b61012361057a565b610159600480360360408110156101a557600080fd5b506001600160a01b038135169060200135610580565b610123600480360360208110156101d157600080fd5b50356001600160a01b031661062e565b6101e96106ab565b604080516001600160a01b039092168252519081900360200190f35b6101236106ba565b6101e96106c0565b61013d6106cf565b61013d6106d8565b6101236106e4565b6101596004803603602081101561024357600080fd5b50356001600160a01b03166106ea565b6101236107de565b6101596004803603602081101561027157600080fd5b50356001600160a01b03166107e4565b6101236108d9565b6101e96108df565b60045481565b600080546001600160a01b031633146102e15760405162461bcd60e51b8152600401808060200182810382526036815260200180610c426036913960400191505060405180910390fd5b506006805460ff19811660ff9182161517918290551690565b60065460ff161561034a576040805162461bcd60e51b815260206004820152601560248201527410d85b5c185a59db881a5cc818d85b98d95b1b1959605a1b604482015290519081900360640190fd5b600060075411610394576040805162461bcd60e51b815260206004820152601060248201526f139bc81dda5d1a191c985dc81b19599d60821b604482015290519081900360640190fd5b61039c6106d8565b6103ed576040805162461bcd60e51b815260206004820152601760248201527f4e6f7420616c6c6f77656420746f207769746864726177000000000000000000604482015290519081900360640190fd5b600154600090610405906001600160a01b031661062e565b905060008111610451576040805162461bcd60e51b8152602060048201526012602482015271496e73756666696369656e742066756e647360701b604482015290519081900360640190fd5b6000610462826007546003546108ee565b60015490915061047b906001600160a01b03168261091e565b6007805460001901905542600555600154604080516001600160a01b039092168252602082018390523382820152517f7d9852b40a126afc03f00fa9020482939abdb431887f9680c1c02b3b5c8f63199181900360600190a15050565b60065460ff1615610528576040805162461bcd60e51b815260206004820152601560248201527410d85b5c185a59db881a5cc818d85b98d95b1b1959605a1b604482015290519081900360640190fd5b610532828261093b565b604080516001600160a01b03841681526020810183905281517f2cb77763bc1e8490c1a904905c4d74b4269919aca114464f4bb4d911e60de364929181900390910190a15050565b60075481565b60065460ff166105d7576040805162461bcd60e51b815260206004820152601c60248201527f43616d706169676e2073686f756c642062652063616e63656c6c656400000000604482015290519081900360640190fd5b6000546001600160a01b031633146106205760405162461bcd60e51b8152600401808060200182810382526036815260200180610c426036913960400191505060405180910390fd5b61062a828261091e565b5050565b600954604080516370a0823160e01b815230600482015290516000926001600160a01b0316916370a08231916024808301926020929190829003018186803b15801561067957600080fd5b505afa15801561068d573d6000803e3d6000fd5b505050506040513d60208110156106a357600080fd5b505192915050565b6000546001600160a01b031681565b60035481565b6001546001600160a01b031681565b60065460ff1681565b60045460055401421190565b60055481565b6000546001600160a01b031633146107335760405162461bcd60e51b8152600401808060200182810382526036815260200180610c426036913960400191505060405180910390fd5b6001600160a01b038116610783576040805162461bcd60e51b81526020600482015260126024820152712732b2b21030903b30b634b21030b236b4b760711b604482015290519081900360640190fd5b600080546040516001600160a01b03808516939216917f2f4e7de2a1dbac81744f8c97250194a39d96545eb864d155412811ff2f9c9ff891a3600080546001600160a01b0319166001600160a01b0392909216919091179055565b60025481565b6000546001600160a01b0316331461082d5760405162461bcd60e51b8152600401808060200182810382526036815260200180610c426036913960400191505060405180910390fd5b6001600160a01b03811661087d576040805162461bcd60e51b81526020600482015260126024820152712732b2b21030903b30b634b21037bbb732b960711b604482015290519081900360640190fd5b6001546040516001600160a01b038084169216907f8be0079c531659141344cd1fd0a4f28419497f9722a3daafe3b4186f6b6457e090600090a3600180546001600160a01b0319166001600160a01b0392909216919091179055565b60085481565b6009546001600160a01b031681565b600081610906578284816108fe57fe5b049050610917565b818410610914575080610917565b50825b9392505050565b60095461062a906001600160a01b0316838363ffffffff61099616565b34156109785760405162461bcd60e51b8152600401808060200182810382526022815260200180610ca26022913960400191505060405180910390fd5b60095461062a906001600160a01b031683308463ffffffff6109ed16565b604080516001600160a01b038416602482015260448082018490528251808303909101815260649091019091526020810180516001600160e01b031663a9059cbb60e01b1790526109e8908490610a4d565b505050565b604080516001600160a01b0385811660248301528416604482015260648082018490528251808303909101815260849091019091526020810180516001600160e01b03166323b872dd60e01b179052610a47908590610a4d565b50505050565b610a5f826001600160a01b0316610c05565b610ab0576040805162461bcd60e51b815260206004820152601f60248201527f5361666545524332303a2063616c6c20746f206e6f6e2d636f6e747261637400604482015290519081900360640190fd5b60006060836001600160a01b0316836040518082805190602001908083835b60208310610aee5780518252601f199092019160209182019101610acf565b6001836020036101000a0380198251168184511680821785525050505050509050019150506000604051808303816000865af19150503d8060008114610b50576040519150601f19603f3d011682016040523d82523d6000602084013e610b55565b606091505b509150915081610bac576040805162461bcd60e51b815260206004820181905260248201527f5361666545524332303a206c6f772d6c6576656c2063616c6c206661696c6564604482015290519081900360640190fd5b805115610a4757808060200190516020811015610bc857600080fd5b5051610a475760405162461bcd60e51b815260040180806020018281038252602a815260200180610c78602a913960400191505060405180910390fd5b6000813f7fc5d2460186f7233c927e7db2dcc703c0e500b653ca82273b7bfad8045d85a4708115801590610c395750808214155b94935050505056fe4f6e6c7920636f6e74726163742061646d696e6973747261746f722063616e20706572666f726d2074686973206f7065726174696f6e5361666545524332303a204552433230206f7065726174696f6e20646964206e6f7420737563636565644e6f2045544820616c6c6f77656420666f7220455243323020636f6e74726163742ea265627a7a72315820b84c2983e62153f94e0a87d413bca7d82c1436776a9189b5aac6ddb868e2ff3964736f6c634300050b0032436f6e7472616374206d757374206861766520616e20696e697469616c2061646d696ea265627a7a7231582088368a6976083cad18dfff04f5e03a6c5d7ac3f98a9c386af01c8629152dc4d664736f6c634300050b0032",
  "source": "pragma solidity ^0.5.11;\n\nimport \"./ERC20FundingContract.sol\";\nimport \"./FundingContract.sol\";\nimport \"./Deployer.sol\";\n\n\ncontract BiliraFundingContractDeployer is Deployer {\n    function deploy(\n        uint256 _numberOfPlannedPayouts,\n        uint256 _withdrawPeriod,\n        uint256 _campaignEndTime,\n        uint256 _amountPerPayment,\n        address payable __owner,\n        address _tokenAddress,\n        address _adminAddress\n    ) external returns (FundingContract c) {\n        c = new ERC20FundingContract(\n            _numberOfPlannedPayouts,\n            _withdrawPeriod,\n            _campaignEndTime,\n            _amountPerPayment,\n            __owner,\n            _tokenAddress,\n            _adminAddress\n        );\n    }\n}\n",
  "sourcePath": "/Users/kadir/Code/ucurtma/smart-contracts/contracts/BiliraFundingContractDeployer.sol",
  "compiler": {
    "name": "solc",
    "version": "0.5.11+commit.c082d0b4.Emscripten.clang"
  },
  "schemaVersion": "3.0.20",
  "updatedAt": "2021-03-10T20:39:15.066Z",
  "networkType": "ethereum",
  "devdoc": {
    "methods": {}
  },
  "userdoc": {
    "methods": {}
  }
}