{
  "contractName": "DeploymentManager",
  "abi": [
    {
      "constant": true,
      "inputs": [
        {
          "internalType": "address",
          "name": "",
          "type": "address"
        },
        {
          "internalType": "uint256",
          "name": "",
          "type": "uint256"
        }
      ],
      "name": "deployedContracts",
      "outputs": [
        {
          "internalType": "address",
          "name": "deployer",
          "type": "address"
        },
        {
          "internalType": "address",
          "name": "contractAddress",
          "type": "address"
        }
      ],
      "payable": false,
      "stateMutability": "view",
      "type": "function"
    },
    {
      "constant": false,
      "inputs": [],
      "name": "destroy",
      "outputs": [],
      "payable": false,
      "stateMutability": "nonpayable",
      "type": "function"
    },
    {
      "constant": true,
      "inputs": [],
      "name": "owner",
      "outputs": [
        {
          "internalType": "address payable",
          "name": "",
          "type": "address"
        }
      ],
      "payable": false,
      "stateMutability": "view",
      "type": "function"
    },
    {
      "constant": false,
      "inputs": [
        {
          "internalType": "address payable",
          "name": "newOwner",
          "type": "address"
        }
      ],
      "name": "transferOwnership",
      "outputs": [],
      "payable": false,
      "stateMutability": "nonpayable",
      "type": "function"
    },
    {
      "constant": true,
      "inputs": [
        {
          "internalType": "address",
          "name": "",
          "type": "address"
        }
      ],
      "name": "allowedUsers",
      "outputs": [
        {
          "internalType": "bool",
          "name": "",
          "type": "bool"
        }
      ],
      "payable": false,
      "stateMutability": "view",
      "type": "function"
    },
    {
      "constant": true,
      "inputs": [
        {
          "internalType": "address",
          "name": "",
          "type": "address"
        }
      ],
      "name": "contractsCount",
      "outputs": [
        {
          "internalType": "uint256",
          "name": "",
          "type": "uint256"
        }
      ],
      "payable": false,
      "stateMutability": "view",
      "type": "function"
    },
    {
      "constant": false,
      "inputs": [
        {
          "internalType": "address payable",
          "name": "_recipient",
          "type": "address"
        }
      ],
      "name": "destroyAndSend",
      "outputs": [],
      "payable": false,
      "stateMutability": "nonpayable",
      "type": "function"
    },
    {
      "inputs": [
        {
          "internalType": "address",
          "name": "_erc20Deployer",
          "type": "address"
        }
      ],
      "payable": false,
      "stateMutability": "nonpayable",
      "type": "constructor"
    },
    {
      "anonymous": false,
      "inputs": [
        {
          "indexed": true,
          "internalType": "address",
          "name": "deployedAddress",
          "type": "address"
        },
        {
          "indexed": true,
          "internalType": "address",
          "name": "deployer",
          "type": "address"
        }
      ],
      "name": "NewFundingContract",
      "type": "event"
    },
    {
      "anonymous": false,
      "inputs": [
        {
          "indexed": true,
          "internalType": "address",
          "name": "previousOwner",
          "type": "address"
        },
        {
          "indexed": true,
          "internalType": "address",
          "name": "newOwner",
          "type": "address"
        }
      ],
      "name": "OwnershipTransferred",
      "type": "event"
    },
    {
      "constant": false,
      "inputs": [
        {
          "internalType": "address",
          "name": "_erc20Deployer",
          "type": "address"
        }
      ],
      "name": "updateERC20Deployer",
      "outputs": [],
      "payable": false,
      "stateMutability": "nonpayable",
      "type": "function"
    },
    {
      "constant": false,
      "inputs": [
        {
          "internalType": "address",
          "name": "_user",
          "type": "address"
        },
        {
          "internalType": "bool",
          "name": "_isAllowed",
          "type": "bool"
        }
      ],
      "name": "updateAllowedUserPermission",
      "outputs": [],
      "payable": false,
      "stateMutability": "nonpayable",
      "type": "function"
    },
    {
      "constant": false,
      "inputs": [
        {
          "internalType": "uint256",
          "name": "_numberOfPlannedPayouts",
          "type": "uint256"
        },
        {
          "internalType": "uint256",
          "name": "_withdrawPeriod",
          "type": "uint256"
        },
        {
          "internalType": "uint256",
          "name": "_campaignEndTime",
          "type": "uint256"
        },
        {
          "internalType": "uint256",
          "name": "_amountPerPayment",
          "type": "uint256"
        },
        {
          "internalType": "address payable",
          "name": "__owner",
          "type": "address"
        },
        {
          "internalType": "address",
          "name": "_tokenAddress",
          "type": "address"
        }
      ],
      "name": "deploy",
      "outputs": [],
      "payable": false,
      "stateMutability": "nonpayable",
      "type": "function"
    },
    {
      "constant": false,
      "inputs": [],
      "name": "withdrawFromAllContracts",
      "outputs": [],
      "payable": false,
      "stateMutability": "nonpayable",
      "type": "function"
    }
  ],
  "bytecode": "0x608060405234801561001057600080fd5b506040516108a53803806108a58339818101604052602081101561003357600080fd5b5051600080546001600160a01b0319908116339081178355600180546001600160a01b0390951694909216939093178155918152600260205260409020805460ff1916909117905561081b8061008a6000396000f3fe608060405234801561001057600080fd5b50600436106100a95760003560e01c8063d224e3fd11610071578063d224e3fd1461015c578063e02286d1146101a2578063f2fde38b146101d0578063f3d1306d146101f6578063f491f6c614610230578063f5074f4114610268576100a9565b806345967555146100ae578063609230ac1461010057806383197ef0146101285780638da5cb5b14610130578063a67d309e14610154575b600080fd5b6100da600480360360408110156100c457600080fd5b506001600160a01b03813516906020013561028e565b604080516001600160a01b03938416815291909216602082015281519081900390910190f35b6101266004803603602081101561011657600080fd5b50356001600160a01b03166102d2565b005b61012661030b565b610138610330565b604080516001600160a01b039092168252519081900360200190f35b61012661033f565b610126600480360360c081101561017257600080fd5b508035906020810135906040810135906060810135906001600160a01b03608082013581169160a0013516610430565b610126600480360360408110156101b857600080fd5b506001600160a01b0381351690602001351515610622565b610126600480360360208110156101e657600080fd5b50356001600160a01b03166106bf565b61021c6004803603602081101561020c57600080fd5b50356001600160a01b0316610744565b604080519115158252519081900360200190f35b6102566004803603602081101561024657600080fd5b50356001600160a01b0316610759565b60408051918252519081900360200190f35b6101266004803603602081101561027e57600080fd5b50356001600160a01b031661076b565b600360205281600052604060002081815481106102a757fe5b6000918252602090912060029091020180546001909101546001600160a01b03918216935016905082565b6000546001600160a01b031633146102e957600080fd5b600180546001600160a01b0319166001600160a01b0392909216919091179055565b6000546001600160a01b0316331461032257600080fd5b6000546001600160a01b0316ff5b6000546001600160a01b031681565b336000908152600360205260409020805480610399576040805162461bcd60e51b8152602060048201526014602482015273139bc818dbdb9d1c9858dd0819195c1b1bde595960621b604482015290519081900360640190fd5b60005b825481101561042b5760008382815481106103b357fe5b6000918252602082206001600290920201015460408051633ccfd60b60e01b815290516001600160a01b0390921693508392633ccfd60b9260048084019382900301818387803b15801561040657600080fd5b505af115801561041a573d6000803e3d6000fd5b50506001909301925061039c915050565b505050565b3360009081526002602052604090205460ff1615156001146104835760405162461bcd60e51b815260040180806020018281038252602981526020018061078f6029913960400191505060405180910390fd5b6001600160a01b0381166104c85760405162461bcd60e51b815260040180806020018281038252602f8152602001806107b8602f913960400191505060405180910390fd5b600154604080516333b0eba760e21b8152600481018990526024810188905260448101879052606481018690526001600160a01b03858116608483015284811660a48301523360c48301529151600093929092169163cec3ae9c9160e48082019260209290919082900301818787803b15801561054457600080fd5b505af1158015610558573d6000803e3d6000fd5b505050506040513d602081101561056e57600080fd5b5051336000818152600360209081526040808320815180830183528581526001600160a01b038088168286018181528454600181810187559589528789209451600290910290940180549484166001600160a01b0319958616178155905190850180549190931693169290921790558585526004909352818420805490910190555193945091927f5ec743f1d0419091a427f519206ded3ef1711d57bdf2e82e2ad58a38b6165c259190a350505050505050565b6000546001600160a01b0316331461063957600080fd5b6001600160a01b038216610694576040805162461bcd60e51b815260206004820152601c60248201527f55736572206d75737420626520612076616c6964206164647265737300000000604482015290519081900360640190fd5b6001600160a01b03919091166000908152600260205260409020805460ff1916911515919091179055565b6000546001600160a01b031633146106d657600080fd5b6001600160a01b0381166106e957600080fd5b600080546040516001600160a01b03808516939216917f8be0079c531659141344cd1fd0a4f28419497f9722a3daafe3b4186f6b6457e091a3600080546001600160a01b0319166001600160a01b0392909216919091179055565b60026020526000908152604090205460ff1681565b60046020526000908152604090205481565b6000546001600160a01b0316331461078257600080fd5b806001600160a01b0316fffe596f7520617265206e6f7420616c6c6f77656420746f206465706c6f7920612063616d706169676e2e43616e206f6e6c79206465706c6f792045524332302046756e64696e672043616d706169676e20436f6e7472616374a265627a7a72315820f954ce99aa7c49256567a4c79a86d18f7319211e6f5fa8ce2c9ffbe026eada9b64736f6c634300050b0032",
  "source": "pragma solidity ^0.5.11;\n\nimport \"./zeppelin/lifecycle/Destructible.sol\";\nimport \"./FundingContract.sol\";\nimport \"./Deployer.sol\";\n\ncontract DeploymentManager is Destructible {\n    struct DeployedContract {\n        address deployer;\n        address contractAddress;\n    }\n\n    modifier isAllowedUser() {\n        require(\n            allowedUsers[msg.sender] == true,\n            \"You are not allowed to deploy a campaign.\"\n        );\n        _;\n    }\n\n    Deployer erc20Deployer;\n    // address constant biliraAddress = 0x2C537E5624e4af88A7ae4060C022609376C8D0EB;\n\n    mapping(address => bool) public allowedUsers;\n    mapping(address => DeployedContract[]) public deployedContracts;\n    mapping(address => uint256) public contractsCount;\n\n    constructor(address _erc20Deployer) public {\n        erc20Deployer = Deployer(_erc20Deployer);\n        allowedUsers[msg.sender] = true;\n    }\n\n    event NewFundingContract(\n        address indexed deployedAddress,\n        address indexed deployer\n    );\n\n    function updateERC20Deployer(address _erc20Deployer) external onlyOwner {\n        erc20Deployer = Deployer(_erc20Deployer);\n    }\n\n    function updateAllowedUserPermission(address _user, bool _isAllowed)\n        external\n        onlyOwner\n    {\n        require(_user != address(0), \"User must be a valid address\");\n        allowedUsers[_user] = _isAllowed;\n    }\n\n    function deploy(\n        uint256 _numberOfPlannedPayouts,\n        uint256 _withdrawPeriod,\n        uint256 _campaignEndTime,\n        uint256 _amountPerPayment,\n        address payable __owner,\n        address _tokenAddress\n    ) external isAllowedUser {\n        if (_tokenAddress == address(0)) {\n            revert(\"Can only deploy ERC20 Funding Campaign Contract\");\n        }\n\n        FundingContract c = erc20Deployer.deploy(\n            _numberOfPlannedPayouts,\n            _withdrawPeriod,\n            _campaignEndTime,\n            _amountPerPayment,\n            __owner,\n            _tokenAddress,\n            msg.sender\n        );\n        deployedContracts[msg.sender].push(\n            DeployedContract(msg.sender, address(c))\n        );\n        contractsCount[msg.sender] += 1;\n        emit NewFundingContract(address(c), msg.sender);\n    }\n\n    function withdrawFromAllContracts() public {\n        DeployedContract[] storage contracts = deployedContracts[msg.sender];\n        uint256 totalContracts = contracts.length;\n        require(totalContracts > 0, \"No contract deployed\");\n\n        for (uint256 index = 0; index < contracts.length; index++) {\n            FundingContract fundingContract = FundingContract(\n                contracts[index].contractAddress\n            );\n            fundingContract.withdraw();\n        }\n    }\n}\n",
  "sourcePath": "/Users/msusur/dev/msusur/ucurtma-contracts/contracts/DeploymentManager.sol",
  "compiler": {
    "name": "solc",
    "version": "0.5.11+commit.c082d0b4.Emscripten.clang"
  },
  "schemaVersion": "3.0.20",
  "updatedAt": "2020-06-16T21:21:13.073Z",
  "networkType": "ethereum",
  "devdoc": {
    "methods": {
      "destroy()": {
        "details": "Transfers the current balance to the owner and terminates the contract."
      },
      "transferOwnership(address)": {
        "details": "Allows the current owner to transfer control of the contract to a newOwner.",
        "params": {
          "newOwner": "The address to transfer ownership to."
        }
      }
    }
  },
  "userdoc": {
    "methods": {}
  }
}