{
  "contractName": "DeploymentManager",
  "abi": [
    {
      "constant": false,
      "inputs": [],
      "name": "destroy",
      "outputs": [],
      "payable": false,
      "stateMutability": "nonpayable",
      "type": "function"
    },
    {
      "constant": true,
      "inputs": [],
      "name": "owner",
      "outputs": [
        {
          "internalType": "address payable",
          "name": "",
          "type": "address"
        }
      ],
      "payable": false,
      "stateMutability": "view",
      "type": "function"
    },
    {
      "constant": true,
      "inputs": [
        {
          "internalType": "uint256",
          "name": "",
          "type": "uint256"
        }
      ],
      "name": "deployedContracts",
      "outputs": [
        {
          "internalType": "address",
          "name": "deployer",
          "type": "address"
        },
        {
          "internalType": "address",
          "name": "contractAddress",
          "type": "address"
        }
      ],
      "payable": false,
      "stateMutability": "view",
      "type": "function"
    },
    {
      "constant": false,
      "inputs": [
        {
          "internalType": "address payable",
          "name": "newOwner",
          "type": "address"
        }
      ],
      "name": "transferOwnership",
      "outputs": [],
      "payable": false,
      "stateMutability": "nonpayable",
      "type": "function"
    },
    {
      "constant": false,
      "inputs": [
        {
          "internalType": "address payable",
          "name": "_recipient",
          "type": "address"
        }
      ],
      "name": "destroyAndSend",
      "outputs": [],
      "payable": false,
      "stateMutability": "nonpayable",
      "type": "function"
    },
    {
      "inputs": [
        {
          "internalType": "address",
          "name": "_erc20Deployer",
          "type": "address"
        }
      ],
      "payable": false,
      "stateMutability": "nonpayable",
      "type": "constructor"
    },
    {
      "anonymous": false,
      "inputs": [
        {
          "indexed": true,
          "internalType": "address",
          "name": "deployedAddress",
          "type": "address"
        },
        {
          "indexed": true,
          "internalType": "address",
          "name": "deployer",
          "type": "address"
        }
      ],
      "name": "NewFundingContract",
      "type": "event"
    },
    {
      "anonymous": false,
      "inputs": [
        {
          "indexed": true,
          "internalType": "address",
          "name": "previousOwner",
          "type": "address"
        },
        {
          "indexed": true,
          "internalType": "address",
          "name": "newOwner",
          "type": "address"
        }
      ],
      "name": "OwnershipTransferred",
      "type": "event"
    },
    {
      "constant": false,
      "inputs": [
        {
          "internalType": "address",
          "name": "_erc20Deployer",
          "type": "address"
        }
      ],
      "name": "updateERC20Deployer",
      "outputs": [],
      "payable": false,
      "stateMutability": "nonpayable",
      "type": "function"
    },
    {
      "constant": false,
      "inputs": [
        {
          "internalType": "uint256",
          "name": "_numberOfPlannedPayouts",
          "type": "uint256"
        },
        {
          "internalType": "uint256",
          "name": "_withdrawPeriod",
          "type": "uint256"
        },
        {
          "internalType": "uint256",
          "name": "_campaignEndTime",
          "type": "uint256"
        },
        {
          "internalType": "address payable",
          "name": "__owner",
          "type": "address"
        },
        {
          "internalType": "address",
          "name": "_tokenAddress",
          "type": "address"
        }
      ],
      "name": "deploy",
      "outputs": [],
      "payable": false,
      "stateMutability": "nonpayable",
      "type": "function"
    }
  ],
  "bytecode": "0x608060405234801561001057600080fd5b506040516105903803806105908339818101604052602081101561003357600080fd5b5051600080546001600160a01b03199081163317909155600180546001600160a01b039093169290911691909117905561051e806100726000396000f3fe608060405234801561001057600080fd5b506004361061007d5760003560e01c80638da5cb5b1161005b5780638da5cb5b146100f25780639ad1ee1014610116578063f2fde38b14610159578063f5074f411461017f5761007d565b8063609230ac14610082578063799468ad146100aa57806383197ef0146100ea575b600080fd5b6100a86004803603602081101561009857600080fd5b50356001600160a01b03166101a5565b005b6100a8600480360360a08110156100c057600080fd5b508035906020810135906040810135906001600160a01b03606082013581169160800135166101de565b6100a86103a8565b6100fa6103cd565b604080516001600160a01b039092168252519081900360200190f35b6101336004803603602081101561012c57600080fd5b50356103dc565b604080516001600160a01b03938416815291909216602082015281519081900390910190f35b6100a86004803603602081101561016f57600080fd5b50356001600160a01b0316610412565b6100a86004803603602081101561019557600080fd5b50356001600160a01b0316610497565b6000546001600160a01b031633146101bc57600080fd5b600180546001600160a01b0319166001600160a01b0392909216919091179055565b6000546001600160a01b031633146101f557600080fd5b6001600160a01b03811661023a5760405162461bcd60e51b815260040180806020018281038252602f8152602001806104bb602f913960400191505060405180910390fd5b600154604080516302c20beb60e61b81526004810188905260248101879052604481018690526001600160a01b03858116606483015284811660848301523360a48301529151600093929092169163b082fac09160c48082019260209290919082900301818787803b1580156102af57600080fd5b505af11580156102c3573d6000803e3d6000fd5b505050506040513d60208110156102d957600080fd5b5051604080518082018252338082526001600160a01b0380851660208401818152600280546001810182556000828152965191027f405787fa12a823e0f2b7631cc41b3ba8828b3321ca811111fa75cd3aa3bb5ace810180549286166001600160a01b031993841617905591517f405787fa12a823e0f2b7631cc41b3ba8828b3321ca811111fa75cd3aa3bb5acf9092018054929094169116179091559251939450927f5ec743f1d0419091a427f519206ded3ef1711d57bdf2e82e2ad58a38b6165c259190a3505050505050565b6000546001600160a01b031633146103bf57600080fd5b6000546001600160a01b0316ff5b6000546001600160a01b031681565b600281815481106103e957fe5b6000918252602090912060029091020180546001909101546001600160a01b0391821692501682565b6000546001600160a01b0316331461042957600080fd5b6001600160a01b03811661043c57600080fd5b600080546040516001600160a01b03808516939216917f8be0079c531659141344cd1fd0a4f28419497f9722a3daafe3b4186f6b6457e091a3600080546001600160a01b0319166001600160a01b0392909216919091179055565b6000546001600160a01b031633146104ae57600080fd5b806001600160a01b0316fffe43616e206f6e6c79206465706c6f792045524332302046756e64696e672043616d706169676e20436f6e7472616374a265627a7a72315820559706935ebe93a5bbff6a3360a89db387fc6862e94196e633330ac86325476964736f6c634300050b0032",
  "source": "pragma solidity ^0.5.11;\n\nimport './zeppelin/lifecycle/Destructible.sol';\nimport './FundingContract.sol';\nimport './Deployer.sol';\n\ncontract DeploymentManager is Destructible {\n    struct DeployedContract {\n        address deployer;\n        address contractAddress;\n    }\n\n    Deployer erc20Deployer;\n\n    DeployedContract[] public deployedContracts;\n\n    constructor(address _erc20Deployer) public {\n        erc20Deployer = Deployer(_erc20Deployer);\n    }\n\n    event NewFundingContract(\n        address indexed deployedAddress,\n        address indexed deployer\n    );\n\n    function updateERC20Deployer(address _erc20Deployer) external onlyOwner {\n        erc20Deployer = Deployer(_erc20Deployer);\n    }\n\n    function deploy(\n        uint256 _numberOfPlannedPayouts,\n        uint256 _withdrawPeriod,\n        uint256 _campaignEndTime,\n        address payable __owner,\n        address _tokenAddress\n    ) external onlyOwner {\n        if(_tokenAddress == address(0)){\n          revert('Can only deploy ERC20 Funding Campaign Contract');\n        }\n\n        FundingContract c = erc20Deployer.deploy(\n                _numberOfPlannedPayouts,\n                _withdrawPeriod,\n                _campaignEndTime,\n                __owner,\n                _tokenAddress,\n                msg.sender\n            );\n        deployedContracts.push(DeployedContract(msg.sender,address(c)));\n        emit NewFundingContract(address(c), msg.sender);\n    }\n}",
  "sourcePath": "/Users/mert/dev/msusur/ucurtma-contracts/contracts/DeploymentManager.sol",
  "compiler": {
    "name": "solc",
    "version": "0.5.11+commit.c082d0b4.Emscripten.clang"
  },
  "schemaVersion": "3.0.20",
  "updatedAt": "2020-01-25T22:49:41.062Z",
  "networkType": "ethereum",
  "devdoc": {
    "methods": {
      "destroy()": {
        "details": "Transfers the current balance to the owner and terminates the contract."
      },
      "transferOwnership(address)": {
        "details": "Allows the current owner to transfer control of the contract to a newOwner.",
        "params": {
          "newOwner": "The address to transfer ownership to."
        }
      }
    }
  },
  "userdoc": {
    "methods": {}
  }
}