{
  "contractName": "DeploymentManager",
  "abi": [
    {
      "constant": true,
      "inputs": [
        {
          "internalType": "address",
          "name": "",
          "type": "address"
        },
        {
          "internalType": "uint256",
          "name": "",
          "type": "uint256"
        }
      ],
      "name": "deployedContracts",
      "outputs": [
        {
          "internalType": "address",
          "name": "deployer",
          "type": "address"
        },
        {
          "internalType": "address",
          "name": "contractAddress",
          "type": "address"
        }
      ],
      "payable": false,
      "stateMutability": "view",
      "type": "function"
    },
    {
      "constant": false,
      "inputs": [],
      "name": "destroy",
      "outputs": [],
      "payable": false,
      "stateMutability": "nonpayable",
      "type": "function"
    },
    {
      "constant": true,
      "inputs": [],
      "name": "owner",
      "outputs": [
        {
          "internalType": "address payable",
          "name": "",
          "type": "address"
        }
      ],
      "payable": false,
      "stateMutability": "view",
      "type": "function"
    },
    {
      "constant": false,
      "inputs": [
        {
          "internalType": "address payable",
          "name": "newOwner",
          "type": "address"
        }
      ],
      "name": "transferOwnership",
      "outputs": [],
      "payable": false,
      "stateMutability": "nonpayable",
      "type": "function"
    },
    {
      "constant": true,
      "inputs": [
        {
          "internalType": "address",
          "name": "",
          "type": "address"
        }
      ],
      "name": "allowedUsers",
      "outputs": [
        {
          "internalType": "bool",
          "name": "",
          "type": "bool"
        }
      ],
      "payable": false,
      "stateMutability": "view",
      "type": "function"
    },
    {
      "constant": true,
      "inputs": [
        {
          "internalType": "address",
          "name": "",
          "type": "address"
        }
      ],
      "name": "contractsCount",
      "outputs": [
        {
          "internalType": "uint256",
          "name": "",
          "type": "uint256"
        }
      ],
      "payable": false,
      "stateMutability": "view",
      "type": "function"
    },
    {
      "constant": false,
      "inputs": [
        {
          "internalType": "address payable",
          "name": "_recipient",
          "type": "address"
        }
      ],
      "name": "destroyAndSend",
      "outputs": [],
      "payable": false,
      "stateMutability": "nonpayable",
      "type": "function"
    },
    {
      "inputs": [
        {
          "internalType": "address",
          "name": "_erc20Deployer",
          "type": "address"
        }
      ],
      "payable": false,
      "stateMutability": "nonpayable",
      "type": "constructor"
    },
    {
      "anonymous": false,
      "inputs": [
        {
          "indexed": true,
          "internalType": "address",
          "name": "deployedAddress",
          "type": "address"
        },
        {
          "indexed": true,
          "internalType": "address",
          "name": "deployer",
          "type": "address"
        }
      ],
      "name": "NewFundingContract",
      "type": "event"
    },
    {
      "anonymous": false,
      "inputs": [
        {
          "indexed": true,
          "internalType": "address",
          "name": "previousOwner",
          "type": "address"
        },
        {
          "indexed": true,
          "internalType": "address",
          "name": "newOwner",
          "type": "address"
        }
      ],
      "name": "OwnershipTransferred",
      "type": "event"
    },
    {
      "constant": false,
      "inputs": [
        {
          "internalType": "address",
          "name": "_erc20Deployer",
          "type": "address"
        }
      ],
      "name": "updateERC20Deployer",
      "outputs": [],
      "payable": false,
      "stateMutability": "nonpayable",
      "type": "function"
    },
    {
      "constant": false,
      "inputs": [
        {
          "internalType": "address",
          "name": "_user",
          "type": "address"
        },
        {
          "internalType": "bool",
          "name": "_isAllowed",
          "type": "bool"
        }
      ],
      "name": "updateAllowedUserPermission",
      "outputs": [],
      "payable": false,
      "stateMutability": "nonpayable",
      "type": "function"
    },
    {
      "constant": false,
      "inputs": [
        {
          "internalType": "uint256",
          "name": "_numberOfPlannedPayouts",
          "type": "uint256"
        },
        {
          "internalType": "uint256",
          "name": "_withdrawPeriod",
          "type": "uint256"
        },
        {
          "internalType": "uint256",
          "name": "_campaignEndTime",
          "type": "uint256"
        },
        {
          "internalType": "address payable",
          "name": "__owner",
          "type": "address"
        },
        {
          "internalType": "address",
          "name": "_tokenAddress",
          "type": "address"
        }
      ],
      "name": "deploy",
      "outputs": [],
      "payable": false,
      "stateMutability": "nonpayable",
      "type": "function"
    }
  ],
  "bytecode": "0x608060405234801561001057600080fd5b506040516107933803806107938339818101604052602081101561003357600080fd5b5051600080546001600160a01b0319908116339081178355600180546001600160a01b0390951694909216939093178155918152600260205260409020805460ff191690911790556107098061008a6000396000f3fe608060405234801561001057600080fd5b506004361061009e5760003560e01c8063e02286d111610066578063e02286d114610189578063f2fde38b146101b7578063f3d1306d146101dd578063f491f6c614610217578063f5074f411461024f5761009e565b806345967555146100a3578063609230ac146100f5578063799468ad1461011d57806383197ef01461015d5780638da5cb5b14610165575b600080fd5b6100cf600480360360408110156100b957600080fd5b506001600160a01b038135169060200135610275565b604080516001600160a01b03938416815291909216602082015281519081900390910190f35b61011b6004803603602081101561010b57600080fd5b50356001600160a01b03166102b9565b005b61011b600480360360a081101561013357600080fd5b508035906020810135906040810135906001600160a01b03606082013581169160800135166102f2565b61011b6104dc565b61016d610501565b604080516001600160a01b039092168252519081900360200190f35b61011b6004803603604081101561019f57600080fd5b506001600160a01b0381351690602001351515610510565b61011b600480360360208110156101cd57600080fd5b50356001600160a01b03166105ad565b610203600480360360208110156101f357600080fd5b50356001600160a01b0316610632565b604080519115158252519081900360200190f35b61023d6004803603602081101561022d57600080fd5b50356001600160a01b0316610647565b60408051918252519081900360200190f35b61011b6004803603602081101561026557600080fd5b50356001600160a01b0316610659565b6003602052816000526040600020818154811061028e57fe5b6000918252602090912060029091020180546001909101546001600160a01b03918216935016905082565b6000546001600160a01b031633146102d057600080fd5b600180546001600160a01b0319166001600160a01b0392909216919091179055565b3360009081526002602052604090205460ff1615156001146103455760405162461bcd60e51b815260040180806020018281038252602981526020018061067d6029913960400191505060405180910390fd5b6001600160a01b03811661038a5760405162461bcd60e51b815260040180806020018281038252602f8152602001806106a6602f913960400191505060405180910390fd5b600154604080516302c20beb60e61b81526004810188905260248101879052604481018690526001600160a01b03858116606483015284811660848301523360a48301529151600093929092169163b082fac09160c48082019260209290919082900301818787803b1580156103ff57600080fd5b505af1158015610413573d6000803e3d6000fd5b505050506040513d602081101561042957600080fd5b5051336000818152600360209081526040808320815180830183528581526001600160a01b038088168286018181528454600181810187559589528789209451600290910290940180549484166001600160a01b0319958616178155905190850180549190931693169290921790558585526004909352818420805490910190555193945091927f5ec743f1d0419091a427f519206ded3ef1711d57bdf2e82e2ad58a38b6165c259190a3505050505050565b6000546001600160a01b031633146104f357600080fd5b6000546001600160a01b0316ff5b6000546001600160a01b031681565b6000546001600160a01b0316331461052757600080fd5b6001600160a01b038216610582576040805162461bcd60e51b815260206004820152601c60248201527f55736572206d75737420626520612076616c6964206164647265737300000000604482015290519081900360640190fd5b6001600160a01b03919091166000908152600260205260409020805460ff1916911515919091179055565b6000546001600160a01b031633146105c457600080fd5b6001600160a01b0381166105d757600080fd5b600080546040516001600160a01b03808516939216917f8be0079c531659141344cd1fd0a4f28419497f9722a3daafe3b4186f6b6457e091a3600080546001600160a01b0319166001600160a01b0392909216919091179055565b60026020526000908152604090205460ff1681565b60046020526000908152604090205481565b6000546001600160a01b0316331461067057600080fd5b806001600160a01b0316fffe596f7520617265206e6f7420616c6c6f77656420746f206465706c6f7920612063616d706169676e2e43616e206f6e6c79206465706c6f792045524332302046756e64696e672043616d706169676e20436f6e7472616374a265627a7a72315820087f2ac54b54161aa08c73d5dce59129b69a1a1a361c1a1e8da69ea902bfd72564736f6c634300050b0032",
  "source": "pragma solidity ^0.5.11;\n\nimport \"./zeppelin/lifecycle/Destructible.sol\";\nimport \"./FundingContract.sol\";\nimport \"./Deployer.sol\";\n\n\ncontract DeploymentManager is Destructible {\n    struct DeployedContract {\n        address deployer;\n        address contractAddress;\n    }\n\n    modifier isAllowedUser() {\n        require(\n            allowedUsers[msg.sender] == true,\n            \"You are not allowed to deploy a campaign.\"\n        );\n        _;\n    }\n\n    Deployer erc20Deployer;\n    // address constant biliraAddress = 0x2C537E5624e4af88A7ae4060C022609376C8D0EB;\n\n    mapping(address => bool) public allowedUsers;\n    mapping(address => DeployedContract[]) public deployedContracts;\n    mapping(address => uint256) public contractsCount;\n\n    constructor(address _erc20Deployer) public {\n        erc20Deployer = Deployer(_erc20Deployer);\n        allowedUsers[msg.sender] = true;\n    }\n\n    event NewFundingContract(\n        address indexed deployedAddress,\n        address indexed deployer\n    );\n\n    function updateERC20Deployer(address _erc20Deployer) external onlyOwner {\n        erc20Deployer = Deployer(_erc20Deployer);\n    }\n\n    function updateAllowedUserPermission(address _user, bool _isAllowed)\n        external\n        onlyOwner\n    {\n        require(_user != address(0), \"User must be a valid address\");\n        allowedUsers[_user] = _isAllowed;\n    }\n\n    function deploy(\n        uint256 _numberOfPlannedPayouts,\n        uint256 _withdrawPeriod,\n        uint256 _campaignEndTime,\n        address payable __owner,\n        address _tokenAddress\n    ) external isAllowedUser {\n        if (_tokenAddress == address(0)) {\n            revert(\"Can only deploy ERC20 Funding Campaign Contract\");\n        }\n\n        FundingContract c = erc20Deployer.deploy(\n            _numberOfPlannedPayouts,\n            _withdrawPeriod,\n            _campaignEndTime,\n            __owner,\n            _tokenAddress,\n            msg.sender\n        );\n        deployedContracts[msg.sender].push(\n            DeployedContract(msg.sender, address(c))\n        );\n        contractsCount[msg.sender] += 1;\n        emit NewFundingContract(address(c), msg.sender);\n    }\n}\n",
  "sourcePath": "/Users/msusur/dev/msusur/ucurtma-contracts/contracts/DeploymentManager.sol",
  "compiler": {
    "name": "solc",
    "version": "0.5.11+commit.c082d0b4.Emscripten.clang"
  },
  "schemaVersion": "3.0.20",
  "updatedAt": "2020-06-07T15:36:29.421Z",
  "devdoc": {
    "methods": {
      "destroy()": {
        "details": "Transfers the current balance to the owner and terminates the contract."
      },
      "transferOwnership(address)": {
        "details": "Allows the current owner to transfer control of the contract to a newOwner.",
        "params": {
          "newOwner": "The address to transfer ownership to."
        }
      }
    }
  },
  "userdoc": {
    "methods": {}
  }
}