{
  "contractName": "Destructible",
  "abi": [
    {
      "constant": true,
      "inputs": [],
      "name": "owner",
      "outputs": [
        {
          "internalType": "address payable",
          "name": "",
          "type": "address"
        }
      ],
      "payable": false,
      "stateMutability": "view",
      "type": "function"
    },
    {
      "constant": false,
      "inputs": [
        {
          "internalType": "address payable",
          "name": "newOwner",
          "type": "address"
        }
      ],
      "name": "transferOwnership",
      "outputs": [],
      "payable": false,
      "stateMutability": "nonpayable",
      "type": "function"
    },
    {
      "inputs": [],
      "payable": true,
      "stateMutability": "payable",
      "type": "constructor"
    },
    {
      "anonymous": false,
      "inputs": [
        {
          "indexed": true,
          "internalType": "address",
          "name": "previousOwner",
          "type": "address"
        },
        {
          "indexed": true,
          "internalType": "address",
          "name": "newOwner",
          "type": "address"
        }
      ],
      "name": "OwnershipTransferred",
      "type": "event"
    },
    {
      "constant": false,
      "inputs": [],
      "name": "destroy",
      "outputs": [],
      "payable": false,
      "stateMutability": "nonpayable",
      "type": "function"
    },
    {
      "constant": false,
      "inputs": [
        {
          "internalType": "address payable",
          "name": "_recipient",
          "type": "address"
        }
      ],
      "name": "destroyAndSend",
      "outputs": [],
      "payable": false,
      "stateMutability": "nonpayable",
      "type": "function"
    }
  ],
  "bytecode": "0x6080604052600080546001600160a01b031916331790556101dc806100256000396000f3fe608060405234801561001057600080fd5b506004361061004c5760003560e01c806383197ef0146100515780638da5cb5b1461005b578063f2fde38b1461007f578063f5074f41146100a5575b600080fd5b6100596100cb565b005b6100636100f0565b604080516001600160a01b039092168252519081900360200190f35b6100596004803603602081101561009557600080fd5b50356001600160a01b03166100ff565b610059600480360360208110156100bb57600080fd5b50356001600160a01b0316610184565b6000546001600160a01b031633146100e257600080fd5b6000546001600160a01b0316ff5b6000546001600160a01b031681565b6000546001600160a01b0316331461011657600080fd5b6001600160a01b03811661012957600080fd5b600080546040516001600160a01b03808516939216917f8be0079c531659141344cd1fd0a4f28419497f9722a3daafe3b4186f6b6457e091a3600080546001600160a01b0319166001600160a01b0392909216919091179055565b6000546001600160a01b0316331461019b57600080fd5b806001600160a01b0316fffea265627a7a72315820c3dbdb9b1bdeb67514dd03a27b21376d85d55956cb0b091e1045b0e2a45dcde264736f6c634300050b0032",
  "source": "pragma solidity ^0.5.11;\n\nimport \"../ownership/Ownable.sol\";\n\n/**\n * @title Destructible\n * @dev Base contract that can be destroyed by owner. All funds in contract will be sent to the owner.\n */\ncontract Destructible is Ownable {\n\n  constructor() public payable { }\n\n  /**\n   * @dev Transfers the current balance to the owner and terminates the contract.\n   */\n  function destroy() public onlyOwner {\n    selfdestruct(owner);\n  }\n\n  function destroyAndSend(address payable _recipient) public onlyOwner {\n    selfdestruct(_recipient);\n  }\n}",
  "sourcePath": "/Users/kadir/Code/ucurtma/smart-contracts/contracts/zeppelin/lifecycle/Destructible.sol",
  "compiler": {
    "name": "solc",
    "version": "0.5.11+commit.c082d0b4.Emscripten.clang"
  },
  "schemaVersion": "3.0.20",
  "updatedAt": "2021-03-10T20:27:52.458Z",
  "devdoc": {
    "details": "Base contract that can be destroyed by owner. All funds in contract will be sent to the owner.",
    "methods": {
      "destroy()": {
        "details": "Transfers the current balance to the owner and terminates the contract."
      },
      "transferOwnership(address)": {
        "details": "Allows the current owner to transfer control of the contract to a newOwner.",
        "params": {
          "newOwner": "The address to transfer ownership to."
        }
      }
    },
    "title": "Destructible"
  },
  "userdoc": {
    "methods": {}
  }
}