{
  "contractName": "FundingManagerContract",
  "abi": [
    {
      "constant": true,
      "inputs": [],
      "name": "deploymentManager",
      "outputs": [
        {
          "internalType": "address",
          "name": "",
          "type": "address"
        }
      ],
      "payable": false,
      "stateMutability": "view",
      "type": "function"
    },
    {
      "constant": true,
      "inputs": [
        {
          "internalType": "address",
          "name": "",
          "type": "address"
        }
      ],
      "name": "skippedCampaigns",
      "outputs": [
        {
          "internalType": "bool",
          "name": "",
          "type": "bool"
        }
      ],
      "payable": false,
      "stateMutability": "view",
      "type": "function"
    },
    {
      "constant": true,
      "inputs": [],
      "name": "owner",
      "outputs": [
        {
          "internalType": "address payable",
          "name": "",
          "type": "address"
        }
      ],
      "payable": false,
      "stateMutability": "view",
      "type": "function"
    },
    {
      "constant": true,
      "inputs": [],
      "name": "tokenAddress",
      "outputs": [
        {
          "internalType": "address",
          "name": "",
          "type": "address"
        }
      ],
      "payable": false,
      "stateMutability": "view",
      "type": "function"
    },
    {
      "constant": false,
      "inputs": [
        {
          "internalType": "address payable",
          "name": "newOwner",
          "type": "address"
        }
      ],
      "name": "transferOwnership",
      "outputs": [],
      "payable": false,
      "stateMutability": "nonpayable",
      "type": "function"
    },
    {
      "inputs": [
        {
          "internalType": "address",
          "name": "_deploymentManager",
          "type": "address"
        },
        {
          "internalType": "address",
          "name": "_tokenAddress",
          "type": "address"
        }
      ],
      "payable": false,
      "stateMutability": "nonpayable",
      "type": "constructor"
    },
    {
      "anonymous": false,
      "inputs": [
        {
          "indexed": true,
          "internalType": "address",
          "name": "previousOwner",
          "type": "address"
        },
        {
          "indexed": true,
          "internalType": "address",
          "name": "newOwner",
          "type": "address"
        }
      ],
      "name": "OwnershipTransferred",
      "type": "event"
    },
    {
      "constant": false,
      "inputs": [
        {
          "internalType": "address",
          "name": "_deploymentManager",
          "type": "address"
        }
      ],
      "name": "updateDeploymentManager",
      "outputs": [],
      "payable": false,
      "stateMutability": "nonpayable",
      "type": "function"
    },
    {
      "constant": false,
      "inputs": [],
      "name": "payoutToCampaigns",
      "outputs": [],
      "payable": false,
      "stateMutability": "nonpayable",
      "type": "function"
    },
    {
      "constant": false,
      "inputs": [
        {
          "internalType": "uint256",
          "name": "_campaignTopLimit",
          "type": "uint256"
        },
        {
          "internalType": "address[]",
          "name": "_campaigns",
          "type": "address[]"
        }
      ],
      "name": "splitShareCampaigns",
      "outputs": [],
      "payable": false,
      "stateMutability": "nonpayable",
      "type": "function"
    },
    {
      "constant": false,
      "inputs": [
        {
          "internalType": "uint256",
          "name": "_campaignTopLimit",
          "type": "uint256"
        }
      ],
      "name": "splitShareAmongCampaigns",
      "outputs": [],
      "payable": false,
      "stateMutability": "nonpayable",
      "type": "function"
    },
    {
      "constant": false,
      "inputs": [],
      "name": "destroyAndSend",
      "outputs": [],
      "payable": false,
      "stateMutability": "nonpayable",
      "type": "function"
    },
    {
      "constant": false,
      "inputs": [
        {
          "internalType": "address",
          "name": "_tokenAddress",
          "type": "address"
        }
      ],
      "name": "destroyAndSend",
      "outputs": [],
      "payable": false,
      "stateMutability": "nonpayable",
      "type": "function"
    },
    {
      "constant": true,
      "inputs": [
        {
          "internalType": "uint256",
          "name": "num",
          "type": "uint256"
        }
      ],
      "name": "getCampaign",
      "outputs": [
        {
          "internalType": "address",
          "name": "deployer",
          "type": "address"
        },
        {
          "internalType": "address",
          "name": "currentContractAddress",
          "type": "address"
        }
      ],
      "payable": false,
      "stateMutability": "view",
      "type": "function"
    }
  ],
  "bytecode": "0x608060405234801561001057600080fd5b506040516110be3803806110be8339818101604052604081101561003357600080fd5b508051602090910151600080546001600160a01b031990811633908117821617909155600180546001600160a01b03948516908316179055600380549390921692169190911790556110348061008a6000396000f3fe608060405234801561001057600080fd5b50600436106100b45760003560e01c8063746825741161007157806374682574146101cf5780638da5cb5b146102095780639d76ea5814610211578063b5e024ed14610219578063f2fde38b14610236578063f5074f411461025c576100b4565b80633ebc2697146100b957806345cefcec146100e15780635598f8cc146100e95780635bc0e7c61461012c5780636ca32a9e146101a35780636d792084146101c7575b600080fd5b6100df600480360360208110156100cf57600080fd5b50356001600160a01b0316610282565b005b6100df610307565b610106600480360360208110156100ff57600080fd5b5035610335565b604080516001600160a01b03938416815291909216602082015281519081900390910190f35b6100df6004803603604081101561014257600080fd5b8135919081019060408101602082013564010000000081111561016457600080fd5b82018360208201111561017657600080fd5b8035906020019184602083028401116401000000008311171561019857600080fd5b5090925090506103c9565b6101ab61076b565b604080516001600160a01b039092168252519081900360200190f35b6100df61077a565b6101f5600480360360208110156101e557600080fd5b50356001600160a01b0316610991565b604080519115158252519081900360200190f35b6101ab6109a6565b6101ab6109b5565b6100df6004803603602081101561022f57600080fd5b50356109c4565b6100df6004803603602081101561024c57600080fd5b50356001600160a01b0316610ddf565b6100df6004803603602081101561027257600080fd5b50356001600160a01b0316610e64565b6000546001600160a01b0316331461029957600080fd5b6001600160a01b0381166102e5576040805162461bcd60e51b815260206004820152600e60248201526d1059191c995cdcd39bdd139d5b1b60921b604482015290519081900360640190fd5b600180546001600160a01b0319166001600160a01b0392909216919091179055565b6000546001600160a01b0316331461031e57600080fd5b600354610333906001600160a01b0316610e64565b565b60015460408051634596755560e01b815233600482015260248101849052815160009384936001600160a01b03909116928392634596755592604480840193919291829003018186803b15801561038b57600080fd5b505afa15801561039f573d6000803e3d6000fd5b505050506040513d60408110156103b557600080fd5b508051602090910151909350915050915091565b808061040a576040805162461bcd60e51b815260206004820152600b60248201526a4e6f436f6e74726163747360a81b604482015290519081900360640190fd5b6003546001600160a01b031661041e610f8c565b600080805b858110156105a857600088888381811061043957fe5b905060200201356001600160a01b031690506000866001600160a01b03166370a08231836040518263ffffffff1660e01b815260040180826001600160a01b03166001600160a01b0316815260200191505060206040518083038186803b1580156104a357600080fd5b505afa1580156104b7573d6000803e3d6000fd5b505050506040513d60208110156104cd57600080fd5b505190506001600160a01b038216158015906104e85750808b115b1561059e576000829050806001600160a01b0316639a82a09a6040518163ffffffff1660e01b815260040160206040518083038186803b15801561052b57600080fd5b505afa15801561053f573d6000803e3d6000fd5b505050506040513d602081101561055557600080fd5b505161059c576040518060400160405280846001600160a01b03168152602001838e0381525087876019811061058757fe5b602002015260019590950194818c0394909401935b505b5050600101610423565b5060005b8281101561076057604080516370a0823160e01b815230600482015290516000916001600160a01b038816916370a0823191602480820192602092909190829003018186803b1580156105fe57600080fd5b505afa158015610612573d6000803e3d6000fd5b505050506040513d602081101561062857600080fd5b505190508061066e576040805162461bcd60e51b815260206004820152600d60248201526c139bc8135bdb995e481319599d609a1b604482015290519081900360640190fd5b610676610fba565b85836019811061068257fe5b60200201519050600084826020015184028161069a57fe5b04905081602001518111156106b0575060208101515b876001600160a01b031663a9059cbb8886601981106106cb57fe5b602002015160000151836040518363ffffffff1660e01b815260040180836001600160a01b03166001600160a01b0316815260200182815260200192505050602060405180830381600087803b15801561072457600080fd5b505af1158015610738573d6000803e3d6000fd5b505050506040513d602081101561074e57600080fd5b50505060019290920191506105ac9050565b505050505050505050565b6001546001600160a01b031681565b60015460408051637a48fb6360e11b815233600482015290516001600160a01b0390921691600091839163f491f6c691602480820192602092909190829003018186803b1580156107ca57600080fd5b505afa1580156107de573d6000803e3d6000fd5b505050506040513d60208110156107f457600080fd5b5051905080610838576040805162461bcd60e51b815260206004820152600b60248201526a4e6f436f6e74726163747360a81b604482015290519081900360640190fd5b60005b8181101561098c57600061084e82610335565b9150506000819050806001600160a01b031663b51459fe6040518163ffffffff1660e01b815260040160206040518083038186803b15801561088f57600080fd5b505afa1580156108a3573d6000803e3d6000fd5b505050506040513d60208110156108b957600080fd5b505180156109295750806001600160a01b0316639a82a09a6040518163ffffffff1660e01b815260040160206040518083038186803b1580156108fb57600080fd5b505afa15801561090f573d6000803e3d6000fd5b505050506040513d602081101561092557600080fd5b5051155b1561098257806001600160a01b0316633ccfd60b6040518163ffffffff1660e01b8152600401600060405180830381600087803b15801561096957600080fd5b505af115801561097d573d6000803e3d6000fd5b505050505b505060010161083b565b505050565b60026020526000908152604090205460ff1681565b6000546001600160a01b031681565b6003546001600160a01b031681565b60015460408051637a48fb6360e11b815233600482015290516001600160a01b0390921691600091839163f491f6c691602480820192602092909190829003018186803b158015610a1457600080fd5b505afa158015610a28573d6000803e3d6000fd5b505050506040513d6020811015610a3e57600080fd5b5051905080610a82576040805162461bcd60e51b815260206004820152600b60248201526a4e6f436f6e74726163747360a81b604482015290519081900360640190fd5b600354604080516370a0823160e01b815230600482015290516001600160a01b039092169160009183916370a0823191602480820192602092909190829003018186803b158015610ad257600080fd5b505afa158015610ae6573d6000803e3d6000fd5b505050506040513d6020811015610afc57600080fd5b5051905080610b42576040805162461bcd60e51b815260206004820152600d60248201526c139bc8135bdb995e481319599d609a1b604482015290519081900360640190fd5b610b4a610fd1565b600080805b86811015610cdf576000610b6282610335565b9150506000876001600160a01b03166370a08231836040518263ffffffff1660e01b815260040180826001600160a01b03166001600160a01b0316815260200191505060206040518083038186803b158015610bbd57600080fd5b505afa158015610bd1573d6000803e3d6000fd5b505050506040513d6020811015610be757600080fd5b505190506001600160a01b03821615801590610c1c57506001600160a01b03821660009081526002602052604090205460ff16155b8015610c275750808b115b15610cd5576000829050806001600160a01b0316639a82a09a6040518163ffffffff1660e01b815260040160206040518083038186803b158015610c6a57600080fd5b505afa158015610c7e573d6000803e3d6000fd5b505050506040513d6020811015610c9457600080fd5b5051610cd3576040518060400160405280846001600160a01b03168152602001838e03815250878760328110610cc657fe5b6020020152600195909501945b505b5050600101610b4f565b5060005b8281101561076057610cf3610fba565b848260328110610cff57fe5b602002015190506000838260200151880281610d1757fe5b0490508a826020015182011115610d31575060208101518a035b876001600160a01b031663a9059cbb878560328110610d4c57fe5b602002015160000151836040518363ffffffff1660e01b815260040180836001600160a01b03166001600160a01b0316815260200182815260200192505050602060405180830381600087803b158015610da557600080fd5b505af1158015610db9573d6000803e3d6000fd5b505050506040513d6020811015610dcf57600080fd5b5050506001919091019050610ce3565b6000546001600160a01b03163314610df657600080fd5b6001600160a01b038116610e0957600080fd5b600080546040516001600160a01b03808516939216917f8be0079c531659141344cd1fd0a4f28419497f9722a3daafe3b4186f6b6457e091a3600080546001600160a01b0319166001600160a01b0392909216919091179055565b6000546001600160a01b03163314610e7b57600080fd5b604080516370a0823160e01b8152306004820152905182916000916001600160a01b038416916370a08231916024808301926020929190829003018186803b158015610ec657600080fd5b505afa158015610eda573d6000803e3d6000fd5b505050506040513d6020811015610ef057600080fd5b505190508015610f7e57600080546040805163a9059cbb60e01b81526001600160a01b0392831660048201526024810185905290519185169263a9059cbb926044808401936020939083900390910190829087803b158015610f5157600080fd5b505af1158015610f65573d6000803e3d6000fd5b505050506040513d6020811015610f7b57600080fd5b50505b6000546001600160a01b0316ff5b6040518061032001604052806019905b610fa4610fba565b815260200190600190039081610f9c5790505090565b604080518082019091526000808252602082015290565b6040518061064001604052806032905b610fe9610fba565b815260200190600190039081610fe1579050509056fea265627a7a723158204af10bcaa62bd9761fbc686dfb9dde9f678d2eb3e6ef7ccad984574568beaee064736f6c634300050b0032",
  "source": "pragma solidity ^0.5.11;\n\nimport \"./zeppelin/ownership/Ownable.sol\";\nimport \"./zeppelin/token/ERC20/IERC20.sol\";\nimport \"./DeploymentManager.sol\";\nimport \"./FundingContract.sol\";\n\ncontract FundingManagerContract is Ownable {\n    struct FundingLevel {\n        address campaign;\n        uint256 requiredBalance;\n    }\n\n    address public deploymentManager;\n    mapping(address => bool) public skippedCampaigns;\n    address public tokenAddress;\n\n    constructor(address _deploymentManager, address _tokenAddress) public {\n        owner = msg.sender;\n        deploymentManager = _deploymentManager;\n        tokenAddress = _tokenAddress;\n    }\n\n    // function addSkipContract(address _campaignAddress) external onlyOwner {\n    //     require(_campaignAddress != address(0), \"AddressNotNull\");\n    //     skippedCampaigns[_campaignAddress] = true;\n    // }\n\n    // function removeSkipContract(address _campaignAddress) external onlyOwner {\n    //     require(_campaignAddress != address(0), \"AddressNotNull\");\n    //     skippedCampaigns[_campaignAddress] = false;\n    // }\n\n    function updateDeploymentManager(address _deploymentManager)\n        external\n        onlyOwner\n    {\n        require(_deploymentManager != address(0), \"AddressNotNull\");\n        deploymentManager = _deploymentManager;\n    }\n\n    function payoutToCampaigns() external {\n        DeploymentManager manager = DeploymentManager(deploymentManager);\n        uint256 campaignsCount = manager.contractsCount(msg.sender);\n        require(campaignsCount > 0, \"NoContracts\");\n\n        for (uint256 index = 0; index < campaignsCount; index += 1) {\n            (, address currentContractAddress) = getCampaign(index);\n            FundingContract campaign = FundingContract(currentContractAddress);\n            if (campaign.canWithdraw() && !campaign.cancelled()) {\n                campaign.withdraw();\n            }\n        }\n    }\n\n    function splitShareCampaigns(\n        uint256 _campaignTopLimit,\n        address[] calldata _campaigns\n    ) external {\n        uint256 campaignsCount = _campaigns.length;\n        require(campaignsCount > 0, \"NoContracts\");\n\n        IERC20 token = IERC20(tokenAddress);\n\n        FundingLevel[25] memory fundings;\n        uint256 counter = 0;\n        uint256 totalMissingBalance;\n        for (uint256 index = 0; index < campaignsCount; index += 1) {\n            address currentContractAddress = _campaigns[index];\n            uint256 balanceOfContract = token.balanceOf(currentContractAddress);\n            if (\n                currentContractAddress != address(0) &&\n                _campaignTopLimit > balanceOfContract\n            ) {\n                FundingContract campaign = FundingContract(\n                    currentContractAddress\n                );\n                if (!campaign.cancelled()) {\n                    fundings[counter] = FundingLevel(\n                        currentContractAddress,\n                        _campaignTopLimit - balanceOfContract\n                    );\n                    counter += 1;\n                    totalMissingBalance +=\n                        _campaignTopLimit -\n                        balanceOfContract;\n                }\n            }\n        }\n\n        for (\n            uint256 fundingIndex = 0;\n            fundingIndex < counter;\n            fundingIndex += 1\n        ) {\n            uint256 totalBalanceInContract = token.balanceOf(address(this));\n            require(totalBalanceInContract > 0, \"No Money Left\");\n            FundingLevel memory level = fundings[fundingIndex];\n            uint256 amountToPay = (totalBalanceInContract *\n                level.requiredBalance) / totalMissingBalance;\n            if (amountToPay > level.requiredBalance) {\n                amountToPay = level.requiredBalance;\n            }\n            token.transfer(fundings[fundingIndex].campaign, amountToPay);\n        }\n    }\n\n    function splitShareAmongCampaigns(uint256 _campaignTopLimit) public {\n        DeploymentManager manager = DeploymentManager(deploymentManager);\n        uint256 campaignsCount = manager.contractsCount(msg.sender);\n        require(campaignsCount > 0, \"NoContracts\");\n\n        IERC20 token = IERC20(tokenAddress);\n        uint256 totalBalanceInContract = token.balanceOf(address(this));\n        require(totalBalanceInContract > 0, \"No Money Left\");\n\n        FundingLevel[50] memory fundings;\n        uint256 counter = 0;\n        uint256 totalMissingBalance;\n\n        for (uint256 index = 0; index < campaignsCount; index += 1) {\n            (, address currentContractAddress) = getCampaign(index);\n            uint256 balanceOfContract = token.balanceOf(currentContractAddress);\n            if (\n                currentContractAddress != address(0) &&\n                !skippedCampaigns[currentContractAddress] &&\n                _campaignTopLimit > balanceOfContract\n            ) {\n                FundingContract campaign = FundingContract(\n                    currentContractAddress\n                );\n                if (!campaign.cancelled()) {\n                    fundings[counter] = FundingLevel(\n                        currentContractAddress,\n                        _campaignTopLimit - balanceOfContract\n                    );\n                    counter += 1;\n                    totalMissingBalance + _campaignTopLimit - balanceOfContract;\n                }\n            }\n        }\n\n        for (\n            uint256 fundingIndex = 0;\n            fundingIndex < counter;\n            fundingIndex += 1\n        ) {\n            FundingLevel memory level = fundings[fundingIndex];\n            uint256 amountToPay = (totalBalanceInContract *\n                level.requiredBalance) / totalMissingBalance;\n            if (amountToPay + level.requiredBalance > _campaignTopLimit) {\n                amountToPay = _campaignTopLimit - level.requiredBalance;\n            }\n            token.transfer(fundings[fundingIndex].campaign, amountToPay);\n        }\n    }\n\n    function destroyAndSend() external onlyOwner {\n        destroyAndSend(tokenAddress);\n    }\n\n    function destroyAndSend(address _tokenAddress) public onlyOwner {\n        IERC20 token = IERC20(_tokenAddress);\n        uint256 balance = token.balanceOf(address(this));\n        if (balance > 0) {\n            token.transfer(owner, balance);\n        }\n        selfdestruct(owner);\n    }\n\n    function getCampaign(uint256 num)\n        public\n        view\n        returns (address deployer, address currentContractAddress)\n    {\n        DeploymentManager manager = DeploymentManager(deploymentManager);\n        return (manager.deployedContracts(msg.sender, num));\n    }\n}\n",
  "sourcePath": "/Users/msusur/dev/msusur/ucurtma-contracts/contracts/FundingManagerContract.sol",
  "compiler": {
    "name": "solc",
    "version": "0.5.11+commit.c082d0b4.Emscripten.clang"
  },
  "schemaVersion": "3.2.1",
  "updatedAt": "2020-07-02T23:46:20.572Z",
  "devdoc": {
    "methods": {
      "transferOwnership(address)": {
        "details": "Allows the current owner to transfer control of the contract to a newOwner.",
        "params": {
          "newOwner": "The address to transfer ownership to."
        }
      }
    }
  },
  "userdoc": {
    "methods": {}
  }
}