{
  "contractName": "FundingManagerContract",
  "abi": [
    {
      "constant": true,
      "inputs": [],
      "name": "deploymentManager",
      "outputs": [
        {
          "internalType": "address",
          "name": "",
          "type": "address"
        }
      ],
      "payable": false,
      "stateMutability": "view",
      "type": "function"
    },
    {
      "constant": true,
      "inputs": [],
      "name": "owner",
      "outputs": [
        {
          "internalType": "address payable",
          "name": "",
          "type": "address"
        }
      ],
      "payable": false,
      "stateMutability": "view",
      "type": "function"
    },
    {
      "constant": true,
      "inputs": [],
      "name": "tokenAddress",
      "outputs": [
        {
          "internalType": "address",
          "name": "",
          "type": "address"
        }
      ],
      "payable": false,
      "stateMutability": "view",
      "type": "function"
    },
    {
      "constant": false,
      "inputs": [
        {
          "internalType": "address payable",
          "name": "newOwner",
          "type": "address"
        }
      ],
      "name": "transferOwnership",
      "outputs": [],
      "payable": false,
      "stateMutability": "nonpayable",
      "type": "function"
    },
    {
      "inputs": [
        {
          "internalType": "address",
          "name": "_deploymentManager",
          "type": "address"
        },
        {
          "internalType": "address",
          "name": "_tokenAddress",
          "type": "address"
        }
      ],
      "payable": false,
      "stateMutability": "nonpayable",
      "type": "constructor"
    },
    {
      "anonymous": false,
      "inputs": [
        {
          "indexed": true,
          "internalType": "address[]",
          "name": "addresses",
          "type": "address[]"
        },
        {
          "indexed": true,
          "internalType": "uint256",
          "name": "totalSpent",
          "type": "uint256"
        }
      ],
      "name": "SplitSharedFunds",
      "type": "event"
    },
    {
      "anonymous": false,
      "inputs": [
        {
          "indexed": true,
          "internalType": "address",
          "name": "previousOwner",
          "type": "address"
        },
        {
          "indexed": true,
          "internalType": "address",
          "name": "newOwner",
          "type": "address"
        }
      ],
      "name": "OwnershipTransferred",
      "type": "event"
    },
    {
      "constant": false,
      "inputs": [
        {
          "internalType": "address",
          "name": "_deploymentManager",
          "type": "address"
        }
      ],
      "name": "updateDeploymentManager",
      "outputs": [],
      "payable": false,
      "stateMutability": "nonpayable",
      "type": "function"
    },
    {
      "constant": false,
      "inputs": [],
      "name": "payoutToCampaigns",
      "outputs": [],
      "payable": false,
      "stateMutability": "nonpayable",
      "type": "function"
    },
    {
      "constant": false,
      "inputs": [
        {
          "internalType": "uint256",
          "name": "_campaignTopLimit",
          "type": "uint256"
        },
        {
          "internalType": "address[]",
          "name": "_campaigns",
          "type": "address[]"
        }
      ],
      "name": "splitShareCampaigns",
      "outputs": [],
      "payable": false,
      "stateMutability": "nonpayable",
      "type": "function"
    },
    {
      "constant": false,
      "inputs": [
        {
          "internalType": "address",
          "name": "_tokenAddress",
          "type": "address"
        },
        {
          "internalType": "address",
          "name": "_toAddress",
          "type": "address"
        }
      ],
      "name": "sendTokens",
      "outputs": [],
      "payable": false,
      "stateMutability": "nonpayable",
      "type": "function"
    },
    {
      "constant": false,
      "inputs": [],
      "name": "destroyAndSend",
      "outputs": [],
      "payable": false,
      "stateMutability": "nonpayable",
      "type": "function"
    },
    {
      "constant": false,
      "inputs": [
        {
          "internalType": "address",
          "name": "_tokenAddress",
          "type": "address"
        }
      ],
      "name": "destroyAndSend",
      "outputs": [],
      "payable": false,
      "stateMutability": "nonpayable",
      "type": "function"
    },
    {
      "constant": true,
      "inputs": [
        {
          "internalType": "uint256",
          "name": "num",
          "type": "uint256"
        }
      ],
      "name": "getCampaign",
      "outputs": [
        {
          "internalType": "address",
          "name": "deployer",
          "type": "address"
        },
        {
          "internalType": "address",
          "name": "currentContractAddress",
          "type": "address"
        }
      ],
      "payable": false,
      "stateMutability": "view",
      "type": "function"
    }
  ],
  "bytecode": "0x608060405234801561001057600080fd5b50604051610e79380380610e798339818101604052604081101561003357600080fd5b508051602090910151600080546001600160a01b031990811633908117821617909155600180546001600160a01b0394851690831617905560028054939092169216919091179055610def8061008a6000396000f3fe608060405234801561001057600080fd5b50600436106100a95760003560e01c80636d792084116100715780636d792084146101bc5780638da5cb5b146101c45780639d76ea58146101cc578063aa9ecff5146101d4578063f2fde38b14610202578063f5074f4114610228576100a9565b80633ebc2697146100ae57806345cefcec146100d65780635598f8cc146100de5780635bc0e7c6146101215780636ca32a9e14610198575b600080fd5b6100d4600480360360208110156100c457600080fd5b50356001600160a01b031661024e565b005b6100d46102d3565b6100fb600480360360208110156100f457600080fd5b5035610301565b604080516001600160a01b03938416815291909216602082015281519081900390910190f35b6100d46004803603604081101561013757600080fd5b8135919081019060408101602082013564010000000081111561015957600080fd5b82018360208201111561016b57600080fd5b8035906020019184602083028401116401000000008311171561018d57600080fd5b509092509050610395565b6101a06107ed565b604080516001600160a01b039092168252519081900360200190f35b6100d46107fc565b6101a0610b2c565b6101a0610b3b565b6100d4600480360360408110156101ea57600080fd5b506001600160a01b0381358116916020013516610b4a565b6100d46004803603602081101561021857600080fd5b50356001600160a01b0316610cb4565b6100d46004803603602081101561023e57600080fd5b50356001600160a01b0316610d39565b6000546001600160a01b0316331461026557600080fd5b6001600160a01b0381166102b1576040805162461bcd60e51b815260206004820152600e60248201526d1059191c995cdcd39bdd139d5b1b60921b604482015290519081900360640190fd5b600180546001600160a01b0319166001600160a01b0392909216919091179055565b6000546001600160a01b031633146102ea57600080fd5b6002546102ff906001600160a01b0316610d39565b565b60015460408051634596755560e01b815233600482015260248101849052815160009384936001600160a01b03909116928392634596755592604480840193919291829003018186803b15801561035757600080fd5b505afa15801561036b573d6000803e3d6000fd5b505050506040513d604081101561038157600080fd5b508051602090910151909350915050915091565b80806103d6576040805162461bcd60e51b815260206004820152600b60248201526a4e6f436f6e74726163747360a81b604482015290519081900360640190fd5b6002546001600160a01b03166103ea610d75565b600080805b858110156105e657600088888381811061040557fe5b905060200201356001600160a01b031690506000866001600160a01b03166370a08231836040518263ffffffff1660e01b815260040180826001600160a01b03166001600160a01b0316815260200191505060206040518083038186803b15801561046f57600080fd5b505afa158015610483573d6000803e3d6000fd5b505050506040513d602081101561049957600080fd5b505190506001600160a01b038216158015906104b45750808b115b156105dc576000829050806001600160a01b0316639a82a09a6040518163ffffffff1660e01b815260040160206040518083038186803b1580156104f757600080fd5b505afa15801561050b573d6000803e3d6000fd5b505050506040513d602081101561052157600080fd5b505115801561059457506000816001600160a01b03166351b9853e6040518163ffffffff1660e01b815260040160206040518083038186803b15801561056657600080fd5b505afa15801561057a573d6000803e3d6000fd5b505050506040513d602081101561059057600080fd5b5051115b156105da576040518060400160405280846001600160a01b03168152602001838e038152508787601981106105c557fe5b602002015260019590950194818c0394909401935b505b50506001016103ef565b50604080516370a0823160e01b815230600482015290516000916001600160a01b038716916370a0823191602480820192602092909190829003018186803b15801561063157600080fd5b505afa158015610645573d6000803e3d6000fd5b505050506040513d602081101561065b57600080fd5b505190508061069f576040805162461bcd60e51b815260206004820152600b60248201526a139bd35bdb995e5319599d60aa1b604482015290519081900360640190fd5b6000805b8481101561079b576106b3610da3565b8682601981106106bf57fe5b6020020151905060008582602001518602816106d757fe5b04905081602001518111156106ed575060208101515b886001600160a01b031663a9059cbb89856019811061070857fe5b602002015160000151836040518363ffffffff1660e01b815260040180836001600160a01b03166001600160a01b0316815260200182815260200192505050602060405180830381600087803b15801561076157600080fd5b505af1158015610775573d6000803e3d6000fd5b505050506040513d602081101561078b57600080fd5b50509290920191506001016106a3565b50808989604051808383602002808284376040519201829003822094507f3ba5a65401f2c412a08553ce7ceda42ca510f372287bd7e2141e991ae5ada43b93506000925050a350505050505050505050565b6001546001600160a01b031681565b60015460408051637a48fb6360e11b815233600482015290516001600160a01b0390921691600091839163f491f6c691602480820192602092909190829003018186803b15801561084c57600080fd5b505afa158015610860573d6000803e3d6000fd5b505050506040513d602081101561087657600080fd5b50519050806108ba576040805162461bcd60e51b815260206004820152600b60248201526a4e6f436f6e74726163747360a81b604482015290519081900360640190fd5b6002546001600160a01b031660005b82811015610b265760006108dc82610301565b91505060008190506000846001600160a01b03166370a08231846040518263ffffffff1660e01b815260040180826001600160a01b03166001600160a01b0316815260200191505060206040518083038186803b15801561093c57600080fd5b505afa158015610950573d6000803e3d6000fd5b505050506040513d602081101561096657600080fd5b505160408051635a8a2cff60e11b815290519192506001600160a01b0384169163b51459fe91600480820192602092909190829003018186803b1580156109ac57600080fd5b505afa1580156109c0573d6000803e3d6000fd5b505050506040513d60208110156109d657600080fd5b50518015610a465750816001600160a01b0316639a82a09a6040518163ffffffff1660e01b815260040160206040518083038186803b158015610a1857600080fd5b505afa158015610a2c573d6000803e3d6000fd5b505050506040513d6020811015610a4257600080fd5b5051155b8015610a525750600081115b8015610ac257506000826001600160a01b03166351b9853e6040518163ffffffff1660e01b815260040160206040518083038186803b158015610a9457600080fd5b505afa158015610aa8573d6000803e3d6000fd5b505050506040513d6020811015610abe57600080fd5b5051115b15610b1b57816001600160a01b0316633ccfd60b6040518163ffffffff1660e01b8152600401600060405180830381600087803b158015610b0257600080fd5b505af1158015610b16573d6000803e3d6000fd5b505050505b5050506001016108c9565b50505050565b6000546001600160a01b031681565b6002546001600160a01b031681565b6000546001600160a01b03163314610b6157600080fd5b604080516370a0823160e01b8152306004820152905183916000916001600160a01b038416916370a08231916024808301926020929190829003018186803b158015610bac57600080fd5b505afa158015610bc0573d6000803e3d6000fd5b505050506040513d6020811015610bd657600080fd5b5051905080610c22576040805162461bcd60e51b8152602060048201526013602482015272496e73756666696369656e7442616c616e636560681b604482015290519081900360640190fd5b816001600160a01b031663a9059cbb84836040518363ffffffff1660e01b815260040180836001600160a01b03166001600160a01b0316815260200182815260200192505050602060405180830381600087803b158015610c8257600080fd5b505af1158015610c96573d6000803e3d6000fd5b505050506040513d6020811015610cac57600080fd5b505050505050565b6000546001600160a01b03163314610ccb57600080fd5b6001600160a01b038116610cde57600080fd5b600080546040516001600160a01b03808516939216917f8be0079c531659141344cd1fd0a4f28419497f9722a3daafe3b4186f6b6457e091a3600080546001600160a01b0319166001600160a01b0392909216919091179055565b6000546001600160a01b03163314610d5057600080fd5b600054610d679082906001600160a01b0316610b4a565b6000546001600160a01b0316ff5b6040518061032001604052806019905b610d8d610da3565b815260200190600190039081610d855790505090565b60408051808201909152600080825260208201529056fea265627a7a7231582039839eca9723bf79e870bc12d18da9476488bde171404bff225346024f209e7964736f6c634300050b0032",
  "source": "pragma solidity ^0.5.11;\n\nimport \"./zeppelin/ownership/Ownable.sol\";\nimport \"./zeppelin/token/ERC20/IERC20.sol\";\nimport \"./DeploymentManager.sol\";\nimport \"./FundingContract.sol\";\n\ncontract FundingManagerContract is Ownable {\n    event SplitSharedFunds(\n        address[] indexed addresses,\n        uint256 indexed totalSpent\n    );\n\n    struct FundingLevel {\n        address campaign;\n        uint256 requiredBalance;\n    }\n\n    address public deploymentManager;\n    address public tokenAddress;\n\n    constructor(address _deploymentManager, address _tokenAddress) public {\n        owner = msg.sender;\n        deploymentManager = _deploymentManager;\n        tokenAddress = _tokenAddress;\n    }\n\n    function updateDeploymentManager(address _deploymentManager)\n        external\n        onlyOwner\n    {\n        require(_deploymentManager != address(0), \"AddressNotNull\");\n        deploymentManager = _deploymentManager;\n    }\n\n    function payoutToCampaigns() external {\n        DeploymentManager manager = DeploymentManager(deploymentManager);\n        uint256 campaignsCount = manager.contractsCount(msg.sender);\n        require(campaignsCount > 0, \"NoContracts\");\n        IERC20 token = IERC20(tokenAddress);\n\n        for (uint256 index = 0; index < campaignsCount; index += 1) {\n            (, address currentContractAddress) = getCampaign(index);\n            FundingContract campaign = FundingContract(currentContractAddress);\n            uint256 campaignBalance = token.balanceOf(currentContractAddress);\n            if (\n                campaign.canWithdraw() &&\n                !campaign.cancelled() &&\n                campaignBalance > 0 &&\n                campaign.totalNumberOfPayoutsLeft() > 0\n            ) {\n                campaign.withdraw();\n            }\n        }\n    }\n\n    function splitShareCampaigns(\n        uint256 _campaignTopLimit,\n        address[] calldata _campaigns\n    ) external {\n        uint256 campaignsCount = _campaigns.length;\n        require(campaignsCount > 0, \"NoContracts\");\n\n        IERC20 token = IERC20(tokenAddress);\n\n        FundingLevel[25] memory fundings;\n        uint256 counter = 0;\n        uint256 totalBalanceNeed;\n        for (uint256 index = 0; index < campaignsCount; index += 1) {\n            address currentContractAddress = _campaigns[index];\n            uint256 balanceOfContract = token.balanceOf(currentContractAddress);\n            if (\n                currentContractAddress != address(0) &&\n                _campaignTopLimit > balanceOfContract\n            ) {\n                FundingContract campaign = FundingContract(\n                    currentContractAddress\n                );\n                if (\n                    !campaign.cancelled() &&\n                    campaign.totalNumberOfPayoutsLeft() > 0\n                ) {\n                    fundings[counter] = FundingLevel(\n                        currentContractAddress,\n                        _campaignTopLimit - balanceOfContract\n                    );\n                    counter += 1;\n                    totalBalanceNeed += _campaignTopLimit - balanceOfContract;\n                }\n            }\n        }\n        uint256 totalBalanceInContract = token.balanceOf(address(this));\n        require(totalBalanceInContract > 0, \"NoMoneyLeft\");\n        uint256 spentAmount = 0;\n        for (\n            uint256 fundingIndex = 0;\n            fundingIndex < counter;\n            fundingIndex += 1\n        ) {\n            FundingLevel memory level = fundings[fundingIndex];\n            uint256 amountToPay = (totalBalanceInContract *\n                level.requiredBalance) / totalBalanceNeed;\n            if (amountToPay > level.requiredBalance) {\n                amountToPay = level.requiredBalance;\n            }\n            token.transfer(fundings[fundingIndex].campaign, amountToPay);\n            spentAmount += amountToPay;\n        }\n        emit SplitSharedFunds(_campaigns, spentAmount);\n    }\n\n    function destroyAndSend() external onlyOwner {\n        destroyAndSend(tokenAddress);\n    }\n\n    function sendTokens(address _tokenAddress, address _toAddress)\n        public\n        onlyOwner\n    {\n        IERC20 token = IERC20(_tokenAddress);\n        uint256 balance = token.balanceOf(address(this));\n        require(balance > 0, \"InsufficientBalance\");\n        token.transfer(_toAddress, balance);\n    }\n\n    function destroyAndSend(address _tokenAddress) public onlyOwner {\n        sendTokens(_tokenAddress, owner);\n        selfdestruct(owner);\n    }\n\n    function getCampaign(uint256 num)\n        public\n        view\n        returns (address deployer, address currentContractAddress)\n    {\n        DeploymentManager manager = DeploymentManager(deploymentManager);\n        return (manager.deployedContracts(msg.sender, num));\n    }\n}\n",
  "sourcePath": "/Users/msusur/dev/msusur/ucurtma-contracts/contracts/FundingManagerContract.sol",
  "compiler": {
    "name": "solc",
    "version": "0.5.11+commit.c082d0b4.Emscripten.clang"
  },
  "schemaVersion": "3.2.1",
  "updatedAt": "2020-07-05T21:45:40.081Z",
  "devdoc": {
    "methods": {
      "transferOwnership(address)": {
        "details": "Allows the current owner to transfer control of the contract to a newOwner.",
        "params": {
          "newOwner": "The address to transfer ownership to."
        }
      }
    }
  },
  "userdoc": {
    "methods": {}
  }
}