{
  "contractName": "FundingManagerContract",
  "abi": [
    {
      "constant": true,
      "inputs": [],
      "name": "deploymentManager",
      "outputs": [
        {
          "internalType": "address",
          "name": "",
          "type": "address"
        }
      ],
      "payable": false,
      "stateMutability": "view",
      "type": "function"
    },
    {
      "constant": true,
      "inputs": [
        {
          "internalType": "address",
          "name": "",
          "type": "address"
        }
      ],
      "name": "skippedCampaigns",
      "outputs": [
        {
          "internalType": "bool",
          "name": "",
          "type": "bool"
        }
      ],
      "payable": false,
      "stateMutability": "view",
      "type": "function"
    },
    {
      "constant": false,
      "inputs": [],
      "name": "destroy",
      "outputs": [],
      "payable": false,
      "stateMutability": "nonpayable",
      "type": "function"
    },
    {
      "constant": true,
      "inputs": [],
      "name": "owner",
      "outputs": [
        {
          "internalType": "address payable",
          "name": "",
          "type": "address"
        }
      ],
      "payable": false,
      "stateMutability": "view",
      "type": "function"
    },
    {
      "constant": false,
      "inputs": [
        {
          "internalType": "address payable",
          "name": "newOwner",
          "type": "address"
        }
      ],
      "name": "transferOwnership",
      "outputs": [],
      "payable": false,
      "stateMutability": "nonpayable",
      "type": "function"
    },
    {
      "constant": false,
      "inputs": [
        {
          "internalType": "address payable",
          "name": "_recipient",
          "type": "address"
        }
      ],
      "name": "destroyAndSend",
      "outputs": [],
      "payable": false,
      "stateMutability": "nonpayable",
      "type": "function"
    },
    {
      "inputs": [
        {
          "internalType": "address payable",
          "name": "_owner",
          "type": "address"
        },
        {
          "internalType": "address",
          "name": "_deploymentManager",
          "type": "address"
        }
      ],
      "payable": false,
      "stateMutability": "nonpayable",
      "type": "constructor"
    },
    {
      "anonymous": false,
      "inputs": [
        {
          "indexed": true,
          "internalType": "address",
          "name": "previousOwner",
          "type": "address"
        },
        {
          "indexed": true,
          "internalType": "address",
          "name": "newOwner",
          "type": "address"
        }
      ],
      "name": "OwnershipTransferred",
      "type": "event"
    },
    {
      "constant": false,
      "inputs": [
        {
          "internalType": "address",
          "name": "_campaignAddress",
          "type": "address"
        }
      ],
      "name": "addSkipContract",
      "outputs": [],
      "payable": false,
      "stateMutability": "nonpayable",
      "type": "function"
    },
    {
      "constant": false,
      "inputs": [
        {
          "internalType": "address",
          "name": "_campaignAddress",
          "type": "address"
        }
      ],
      "name": "removeSkipContract",
      "outputs": [],
      "payable": false,
      "stateMutability": "nonpayable",
      "type": "function"
    },
    {
      "constant": false,
      "inputs": [
        {
          "internalType": "address",
          "name": "_deploymentManager",
          "type": "address"
        }
      ],
      "name": "updateDeploymentManager",
      "outputs": [],
      "payable": false,
      "stateMutability": "nonpayable",
      "type": "function"
    },
    {
      "constant": false,
      "inputs": [],
      "name": "payoutToCampaigns",
      "outputs": [],
      "payable": false,
      "stateMutability": "nonpayable",
      "type": "function"
    }
  ],
  "bytecode": "0x608060405234801561001057600080fd5b506040516107d93803806107d98339818101604052604081101561003357600080fd5b508051602090910151600080546001600160a01b031916331790556001600160a01b0382166100c357604080517f08c379a000000000000000000000000000000000000000000000000000000000815260206004820152600e60248201527f416464726573734e6f744e756c6c000000000000000000000000000000000000604482015290519081900360640190fd5b600080546001600160a01b039384166001600160a01b031991821617909155600180549290931691161790556106db806100fe6000396000f3fe608060405234801561001057600080fd5b506004361061009e5760003560e01c806383197ef01161006657806383197ef0146101575780638da5cb5b1461015f578063ee8269f614610167578063f2fde38b1461018d578063f5074f41146101b35761009e565b80630f5793e9146100a35780633ebc2697146100cb5780636ca32a9e146100f15780636d79208414610115578063746825741461011d575b600080fd5b6100c9600480360360208110156100b957600080fd5b50356001600160a01b03166101d9565b005b6100c9600480360360208110156100e157600080fd5b50356001600160a01b0316610260565b6100f96102e5565b604080516001600160a01b039092168252519081900360200190f35b6100c96102f4565b6101436004803603602081101561013357600080fd5b50356001600160a01b031661049d565b604080519115158252519081900360200190f35b6100c96104b2565b6100f96104d7565b6100c96004803603602081101561017d57600080fd5b50356001600160a01b03166104e6565b6100c9600480360360208110156101a357600080fd5b50356001600160a01b031661056a565b6100c9600480360360208110156101c957600080fd5b50356001600160a01b03166105ef565b6000546001600160a01b031633146101f057600080fd5b6001600160a01b03811661023c576040805162461bcd60e51b815260206004820152600e60248201526d1059191c995cdcd39bdd139d5b1b60921b604482015290519081900360640190fd5b6001600160a01b03166000908152600260205260409020805460ff19166001179055565b6000546001600160a01b0316331461027757600080fd5b6001600160a01b0381166102c3576040805162461bcd60e51b815260206004820152600e60248201526d1059191c995cdcd39bdd139d5b1b60921b604482015290519081900360640190fd5b600180546001600160a01b0319166001600160a01b0392909216919091179055565b6001546001600160a01b031681565b60015460408051637a48fb6360e11b815233600482015290516001600160a01b0390921691600091839163f491f6c691602480820192602092909190829003018186803b15801561034457600080fd5b505afa158015610358573d6000803e3d6000fd5b505050506040513d602081101561036e57600080fd5b50519050806103b2576040805162461bcd60e51b815260206004820152600b60248201526a4e6f436f6e74726163747360a81b604482015290519081900360640190fd5b60005b818110156104985760006103c882610612565b9150506000819050806001600160a01b031663b51459fe6040518163ffffffff1660e01b815260040160206040518083038186803b15801561040957600080fd5b505afa15801561041d573d6000803e3d6000fd5b505050506040513d602081101561043357600080fd5b50511561048e57806001600160a01b0316633ccfd60b6040518163ffffffff1660e01b8152600401600060405180830381600087803b15801561047557600080fd5b505af1158015610489573d6000803e3d6000fd5b505050505b50506001016103b5565b505050565b60026020526000908152604090205460ff1681565b6000546001600160a01b031633146104c957600080fd5b6000546001600160a01b0316ff5b6000546001600160a01b031681565b6000546001600160a01b031633146104fd57600080fd5b6001600160a01b038116610549576040805162461bcd60e51b815260206004820152600e60248201526d1059191c995cdcd39bdd139d5b1b60921b604482015290519081900360640190fd5b6001600160a01b03166000908152600260205260409020805460ff19169055565b6000546001600160a01b0316331461058157600080fd5b6001600160a01b03811661059457600080fd5b600080546040516001600160a01b03808516939216917f8be0079c531659141344cd1fd0a4f28419497f9722a3daafe3b4186f6b6457e091a3600080546001600160a01b0319166001600160a01b0392909216919091179055565b6000546001600160a01b0316331461060657600080fd5b806001600160a01b0316ff5b60015460408051634596755560e01b815233600482015260248101849052815160009384936001600160a01b03909116928392634596755592604480840193919291829003018186803b15801561066857600080fd5b505afa15801561067c573d6000803e3d6000fd5b505050506040513d604081101561069257600080fd5b50805160209091015190935091505091509156fea265627a7a72315820324fee948c7f0ac92a8e0c5f8f3050469d95551f219661088d2fe2668d9b6b7864736f6c634300050b0032",
  "source": "pragma solidity ^0.5.11;\n\nimport \"./zeppelin/lifecycle/Destructible.sol\";\nimport \"./zeppelin/ownership/Ownable.sol\";\nimport \"./DeploymentManager.sol\";\nimport \"./FundingContract.sol\";\n\ncontract FundingManagerContract is Ownable, Destructible {\n    address public deploymentManager;\n    mapping(address => bool) public skippedCampaigns;\n\n    constructor(address payable _owner, address _deploymentManager) public {\n        require(_owner != address(0), \"AddressNotNull\");\n        owner = _owner;\n        deploymentManager = _deploymentManager;\n    }\n\n    function addSkipContract(address _campaignAddress) external onlyOwner {\n        require(_campaignAddress != address(0), \"AddressNotNull\");\n        skippedCampaigns[_campaignAddress] = true;\n    }\n\n    function removeSkipContract(address _campaignAddress) external onlyOwner {\n        require(_campaignAddress != address(0), \"AddressNotNull\");\n        skippedCampaigns[_campaignAddress] = false;\n    }\n\n    function updateDeploymentManager(address _deploymentManager)\n        external\n        onlyOwner\n    {\n        require(_deploymentManager != address(0), \"AddressNotNull\");\n        deploymentManager = _deploymentManager;\n    }\n\n    function payoutToCampaigns() external {\n        DeploymentManager manager = DeploymentManager(deploymentManager);\n        uint256 campaignsCount = manager.contractsCount(msg.sender);\n        require(campaignsCount > 0, \"NoContracts\");\n\n        for (uint256 index = 0; index < campaignsCount; index += 1) {\n            (, address currentContractAddress) = getCampaign(index);\n            FundingContract campaign = FundingContract(currentContractAddress);\n            if (campaign.canWithdraw()) {\n                campaign.withdraw();\n            }\n        }\n    }\n\n    function getCampaign(uint256 num)\n        internal\n        view\n        returns (address deployer, address currentContractAddress)\n    {\n        DeploymentManager manager = DeploymentManager(deploymentManager);\n        return (manager.deployedContracts(msg.sender, num));\n    }\n}\n",
  "sourcePath": "/Users/msusur/dev/msusur/ucurtma-contracts/contracts/FundingManagerContract.sol",
  "compiler": {
    "name": "solc",
    "version": "0.5.11+commit.c082d0b4.Emscripten.clang"
  },
  "schemaVersion": "3.0.20",
  "updatedAt": "2020-06-29T20:28:46.581Z",
  "devdoc": {
    "methods": {
      "destroy()": {
        "details": "Transfers the current balance to the owner and terminates the contract."
      },
      "transferOwnership(address)": {
        "details": "Allows the current owner to transfer control of the contract to a newOwner.",
        "params": {
          "newOwner": "The address to transfer ownership to."
        }
      }
    }
  },
  "userdoc": {
    "methods": {}
  }
}