{
  "contractName": "FundingManagerContract",
  "abi": [
    {
      "constant": true,
      "inputs": [],
      "name": "deploymentManager",
      "outputs": [
        {
          "internalType": "address",
          "name": "",
          "type": "address"
        }
      ],
      "payable": false,
      "stateMutability": "view",
      "type": "function"
    },
    {
      "constant": true,
      "inputs": [
        {
          "internalType": "address",
          "name": "",
          "type": "address"
        }
      ],
      "name": "skippedCampaigns",
      "outputs": [
        {
          "internalType": "bool",
          "name": "",
          "type": "bool"
        }
      ],
      "payable": false,
      "stateMutability": "view",
      "type": "function"
    },
    {
      "constant": true,
      "inputs": [],
      "name": "owner",
      "outputs": [
        {
          "internalType": "address payable",
          "name": "",
          "type": "address"
        }
      ],
      "payable": false,
      "stateMutability": "view",
      "type": "function"
    },
    {
      "constant": true,
      "inputs": [],
      "name": "tokenAddress",
      "outputs": [
        {
          "internalType": "address",
          "name": "",
          "type": "address"
        }
      ],
      "payable": false,
      "stateMutability": "view",
      "type": "function"
    },
    {
      "constant": false,
      "inputs": [
        {
          "internalType": "address payable",
          "name": "newOwner",
          "type": "address"
        }
      ],
      "name": "transferOwnership",
      "outputs": [],
      "payable": false,
      "stateMutability": "nonpayable",
      "type": "function"
    },
    {
      "inputs": [
        {
          "internalType": "address",
          "name": "_deploymentManager",
          "type": "address"
        },
        {
          "internalType": "address",
          "name": "_tokenAddress",
          "type": "address"
        }
      ],
      "payable": false,
      "stateMutability": "nonpayable",
      "type": "constructor"
    },
    {
      "anonymous": false,
      "inputs": [
        {
          "indexed": true,
          "internalType": "address",
          "name": "previousOwner",
          "type": "address"
        },
        {
          "indexed": true,
          "internalType": "address",
          "name": "newOwner",
          "type": "address"
        }
      ],
      "name": "OwnershipTransferred",
      "type": "event"
    },
    {
      "constant": false,
      "inputs": [
        {
          "internalType": "address",
          "name": "_campaignAddress",
          "type": "address"
        }
      ],
      "name": "addSkipContract",
      "outputs": [],
      "payable": false,
      "stateMutability": "nonpayable",
      "type": "function"
    },
    {
      "constant": false,
      "inputs": [
        {
          "internalType": "address",
          "name": "_campaignAddress",
          "type": "address"
        }
      ],
      "name": "removeSkipContract",
      "outputs": [],
      "payable": false,
      "stateMutability": "nonpayable",
      "type": "function"
    },
    {
      "constant": false,
      "inputs": [
        {
          "internalType": "address",
          "name": "_deploymentManager",
          "type": "address"
        }
      ],
      "name": "updateDeploymentManager",
      "outputs": [],
      "payable": false,
      "stateMutability": "nonpayable",
      "type": "function"
    },
    {
      "constant": false,
      "inputs": [],
      "name": "payoutToCampaigns",
      "outputs": [],
      "payable": false,
      "stateMutability": "nonpayable",
      "type": "function"
    },
    {
      "constant": false,
      "inputs": [
        {
          "internalType": "uint256",
          "name": "_campaignTopLimit",
          "type": "uint256"
        }
      ],
      "name": "splitShareAmongCampaigns",
      "outputs": [],
      "payable": false,
      "stateMutability": "nonpayable",
      "type": "function"
    },
    {
      "constant": false,
      "inputs": [],
      "name": "destroyAndSend",
      "outputs": [],
      "payable": false,
      "stateMutability": "nonpayable",
      "type": "function"
    }
  ],
  "bytecode": "0x608060405234801561001057600080fd5b50604051610f95380380610f958339818101604052604081101561003357600080fd5b508051602090910151600080546001600160a01b031990811633908117821617909155600180546001600160a01b0394851690831617905560038054939092169216919091179055610f0b8061008a6000396000f3fe608060405234801561001057600080fd5b50600436106100a95760003560e01c8063746825741161007157806374682574146101305780638da5cb5b1461016a5780639d76ea5814610172578063b5e024ed1461017a578063ee8269f614610197578063f2fde38b146101bd576100a9565b80630f5793e9146100ae5780633ebc2697146100d657806345cefcec146100fc5780636ca32a9e146101045780636d79208414610128575b600080fd5b6100d4600480360360208110156100c457600080fd5b50356001600160a01b03166101e3565b005b6100d4600480360360208110156100ec57600080fd5b50356001600160a01b031661026a565b6100d46102ef565b61010c61041c565b604080516001600160a01b039092168252519081900360200190f35b6100d461042b565b6101566004803603602081101561014657600080fd5b50356001600160a01b0316610642565b604080519115158252519081900360200190f35b61010c610657565b61010c610666565b6100d46004803603602081101561019057600080fd5b5035610675565b6100d4600480360360208110156101ad57600080fd5b50356001600160a01b0316610a97565b6100d4600480360360208110156101d357600080fd5b50356001600160a01b0316610b1b565b6000546001600160a01b031633146101fa57600080fd5b6001600160a01b038116610246576040805162461bcd60e51b815260206004820152600e60248201526d1059191c995cdcd39bdd139d5b1b60921b604482015290519081900360640190fd5b6001600160a01b03166000908152600260205260409020805460ff19166001179055565b6000546001600160a01b0316331461028157600080fd5b6001600160a01b0381166102cd576040805162461bcd60e51b815260206004820152600e60248201526d1059191c995cdcd39bdd139d5b1b60921b604482015290519081900360640190fd5b600180546001600160a01b0319166001600160a01b0392909216919091179055565b6000546001600160a01b0316331461030657600080fd5b600354604080516370a0823160e01b815230600482015290516001600160a01b039092169160009183916370a0823191602480820192602092909190829003018186803b15801561035657600080fd5b505afa15801561036a573d6000803e3d6000fd5b505050506040513d602081101561038057600080fd5b50519050801561040e57600080546040805163a9059cbb60e01b81526001600160a01b0392831660048201526024810185905290519185169263a9059cbb926044808401936020939083900390910190829087803b1580156103e157600080fd5b505af11580156103f5573d6000803e3d6000fd5b505050506040513d602081101561040b57600080fd5b50505b6000546001600160a01b0316ff5b6001546001600160a01b031681565b60015460408051637a48fb6360e11b815233600482015290516001600160a01b0390921691600091839163f491f6c691602480820192602092909190829003018186803b15801561047b57600080fd5b505afa15801561048f573d6000803e3d6000fd5b505050506040513d60208110156104a557600080fd5b50519050806104e9576040805162461bcd60e51b815260206004820152600b60248201526a4e6f436f6e74726163747360a81b604482015290519081900360640190fd5b60005b8181101561063d5760006104ff82610ba0565b9150506000819050806001600160a01b031663b51459fe6040518163ffffffff1660e01b815260040160206040518083038186803b15801561054057600080fd5b505afa158015610554573d6000803e3d6000fd5b505050506040513d602081101561056a57600080fd5b505180156105da5750806001600160a01b0316639a82a09a6040518163ffffffff1660e01b815260040160206040518083038186803b1580156105ac57600080fd5b505afa1580156105c0573d6000803e3d6000fd5b505050506040513d60208110156105d657600080fd5b5051155b1561063357806001600160a01b0316633ccfd60b6040518163ffffffff1660e01b8152600401600060405180830381600087803b15801561061a57600080fd5b505af115801561062e573d6000803e3d6000fd5b505050505b50506001016104ec565b505050565b60026020526000908152604090205460ff1681565b6000546001600160a01b031681565b6003546001600160a01b031681565b60015460408051637a48fb6360e11b815233600482015290516001600160a01b0390921691600091839163f491f6c691602480820192602092909190829003018186803b1580156106c557600080fd5b505afa1580156106d9573d6000803e3d6000fd5b505050506040513d60208110156106ef57600080fd5b5051905080610733576040805162461bcd60e51b815260206004820152600b60248201526a4e6f436f6e74726163747360a81b604482015290519081900360640190fd5b6003546001600160a01b0316610747610e70565b600080805b8581101561091457600061075f82610ba0565b9150506000866001600160a01b03166370a08231836040518263ffffffff1660e01b815260040180826001600160a01b03166001600160a01b0316815260200191505060206040518083038186803b1580156107ba57600080fd5b505afa1580156107ce573d6000803e3d6000fd5b505050506040513d60208110156107e457600080fd5b505190506001600160a01b0382161580159061081957506001600160a01b03821660009081526002602052604090205460ff16155b80156108245750808a115b1561090a576000829050806001600160a01b0316639a82a09a6040518163ffffffff1660e01b815260040160206040518083038186803b15801561086757600080fd5b505afa15801561087b573d6000803e3d6000fd5b505050506040513d602081101561089157600080fd5b505161090857604080518082019091526001600160a01b0384168152602081016108c18d8563ffffffff610c3416565b90528787603281106108cf57fe5b60200201526108e586600163ffffffff610c7f16565b506109066108f98c8463ffffffff610c3416565b869063ffffffff610c7f16565b505b505b505060010161074c565b50604080516370a0823160e01b815230600482015290516000916001600160a01b038716916370a0823191602480820192602092909190829003018186803b15801561095f57600080fd5b505afa158015610973573d6000803e3d6000fd5b505050506040513d602081101561098957600080fd5b5051905060005b83811015610a8c576109a0610e9e565b8582603281106109ac57fe5b6020020151905060006109dc856109d0846020015187610cd990919063ffffffff16565b9063ffffffff610d3216565b9050876001600160a01b031663a9059cbb8885603281106109f957fe5b602002015160000151836040518363ffffffff1660e01b815260040180836001600160a01b03166001600160a01b0316815260200182815260200192505050602060405180830381600087803b158015610a5257600080fd5b505af1158015610a66573d6000803e3d6000fd5b505050506040513d6020811015610a7c57600080fd5b5050506001919091019050610990565b505050505050505050565b6000546001600160a01b03163314610aae57600080fd5b6001600160a01b038116610afa576040805162461bcd60e51b815260206004820152600e60248201526d1059191c995cdcd39bdd139d5b1b60921b604482015290519081900360640190fd5b6001600160a01b03166000908152600260205260409020805460ff19169055565b6000546001600160a01b03163314610b3257600080fd5b6001600160a01b038116610b4557600080fd5b600080546040516001600160a01b03808516939216917f8be0079c531659141344cd1fd0a4f28419497f9722a3daafe3b4186f6b6457e091a3600080546001600160a01b0319166001600160a01b0392909216919091179055565b60015460408051634596755560e01b815233600482015260248101849052815160009384936001600160a01b03909116928392634596755592604480840193919291829003018186803b158015610bf657600080fd5b505afa158015610c0a573d6000803e3d6000fd5b505050506040513d6040811015610c2057600080fd5b508051602090910151909350915050915091565b6000610c7683836040518060400160405280601e81526020017f536166654d6174683a207375627472616374696f6e206f766572666c6f770000815250610d74565b90505b92915050565b600082820183811015610c76576040805162461bcd60e51b815260206004820152601b60248201527f536166654d6174683a206164646974696f6e206f766572666c6f770000000000604482015290519081900360640190fd5b600082610ce857506000610c79565b82820282848281610cf557fe5b0414610c765760405162461bcd60e51b8152600401808060200182810382526021815260200180610eb66021913960400191505060405180910390fd5b6000610c7683836040518060400160405280601a81526020017f536166654d6174683a206469766973696f6e206279207a65726f000000000000815250610e0b565b60008184841115610e035760405162461bcd60e51b81526004018080602001828103825283818151815260200191508051906020019080838360005b83811015610dc8578181015183820152602001610db0565b50505050905090810190601f168015610df55780820380516001836020036101000a031916815260200191505b509250505060405180910390fd5b505050900390565b60008183610e5a5760405162461bcd60e51b8152602060048201818152835160248401528351909283926044909101919085019080838360008315610dc8578181015183820152602001610db0565b506000838581610e6657fe5b0495945050505050565b6040518061064001604052806032905b610e88610e9e565b815260200190600190039081610e805790505090565b60408051808201909152600080825260208201529056fe536166654d6174683a206d756c7469706c69636174696f6e206f766572666c6f77a265627a7a7231582031beb033f056ef8139860922f23ce74d77728a51351ebab7c66f226003fb784b64736f6c634300050b0032",
  "source": "pragma solidity ^0.5.11;\n\nimport \"./zeppelin/ownership/Ownable.sol\";\nimport \"./zeppelin/token/ERC20/IERC20.sol\";\nimport \"./DeploymentManager.sol\";\nimport \"./FundingContract.sol\";\nimport \"./zeppelin/math/SafeMath.sol\";\n\ncontract FundingManagerContract is Ownable {\n    using SafeMath for uint256;\n\n    struct FundingLevel {\n        address campaign;\n        uint256 requiredBalance;\n    }\n\n    address public deploymentManager;\n    mapping(address => bool) public skippedCampaigns;\n    address public tokenAddress;\n\n    constructor(address _deploymentManager, address _tokenAddress) public {\n        owner = msg.sender;\n        deploymentManager = _deploymentManager;\n        tokenAddress = _tokenAddress;\n    }\n\n    function addSkipContract(address _campaignAddress) external onlyOwner {\n        require(_campaignAddress != address(0), \"AddressNotNull\");\n        skippedCampaigns[_campaignAddress] = true;\n    }\n\n    function removeSkipContract(address _campaignAddress) external onlyOwner {\n        require(_campaignAddress != address(0), \"AddressNotNull\");\n        skippedCampaigns[_campaignAddress] = false;\n    }\n\n    function updateDeploymentManager(address _deploymentManager)\n        external\n        onlyOwner\n    {\n        require(_deploymentManager != address(0), \"AddressNotNull\");\n        deploymentManager = _deploymentManager;\n    }\n\n    function payoutToCampaigns() external {\n        DeploymentManager manager = DeploymentManager(deploymentManager);\n        uint256 campaignsCount = manager.contractsCount(msg.sender);\n        require(campaignsCount > 0, \"NoContracts\");\n\n        for (uint256 index = 0; index < campaignsCount; index += 1) {\n            (, address currentContractAddress) = getCampaign(index);\n            FundingContract campaign = FundingContract(currentContractAddress);\n            if (campaign.canWithdraw() && !campaign.cancelled()) {\n                campaign.withdraw();\n            }\n        }\n    }\n\n    function splitShareAmongCampaigns(uint256 _campaignTopLimit) public {\n        DeploymentManager manager = DeploymentManager(deploymentManager);\n        uint256 campaignsCount = manager.contractsCount(msg.sender);\n        require(campaignsCount > 0, \"NoContracts\");\n\n        IERC20 token = IERC20(tokenAddress);\n        FundingLevel[50] memory fundings;\n        uint256 counter = 0;\n        uint256 totalMissingBalance;\n\n        for (uint256 index = 0; index < campaignsCount; index += 1) {\n            (, address currentContractAddress) = getCampaign(index);\n            uint256 balanceOfContract = token.balanceOf(currentContractAddress);\n            if (\n                currentContractAddress != address(0) &&\n                !skippedCampaigns[currentContractAddress] &&\n                _campaignTopLimit > balanceOfContract\n            ) {\n                FundingContract campaign = FundingContract(\n                    currentContractAddress\n                );\n                if (!campaign.cancelled()) {\n                    fundings[counter] = FundingLevel(\n                        currentContractAddress,\n                        _campaignTopLimit.sub(balanceOfContract)\n                    );\n                    counter.add(1);\n                    totalMissingBalance.add(\n                        _campaignTopLimit.sub(balanceOfContract)\n                    );\n                }\n            }\n        }\n        uint256 totalBalanceInContract = token.balanceOf(address(this));\n        for (\n            uint256 fundingIndex = 0;\n            fundingIndex < counter;\n            fundingIndex += 1\n        ) {\n            FundingLevel memory level = fundings[fundingIndex];\n            uint256 amountPerCampaign = totalBalanceInContract\n                .mul(level.requiredBalance)\n                .div(totalMissingBalance);\n            token.transfer(fundings[fundingIndex].campaign, amountPerCampaign);\n        }\n    }\n\n    function destroyAndSend() external onlyOwner {\n        IERC20 token = IERC20(tokenAddress);\n        uint256 balance = token.balanceOf(address(this));\n        if (balance > 0) {\n            token.transfer(owner, balance);\n        }\n        selfdestruct(owner);\n    }\n\n    function getCampaign(uint256 num)\n        internal\n        view\n        returns (address deployer, address currentContractAddress)\n    {\n        DeploymentManager manager = DeploymentManager(deploymentManager);\n        return (manager.deployedContracts(msg.sender, num));\n    }\n}\n",
  "sourcePath": "/Users/msusur/dev/msusur/ucurtma-contracts/contracts/FundingManagerContract.sol",
  "compiler": {
    "name": "solc",
    "version": "0.5.11+commit.c082d0b4.Emscripten.clang"
  },
  "schemaVersion": "3.0.20",
  "updatedAt": "2020-06-30T21:49:42.290Z",
  "devdoc": {
    "methods": {
      "transferOwnership(address)": {
        "details": "Allows the current owner to transfer control of the contract to a newOwner.",
        "params": {
          "newOwner": "The address to transfer ownership to."
        }
      }
    }
  },
  "userdoc": {
    "methods": {}
  }
}